:020000040800F2
:100000005072002089320008052C0008072C0008D7
:10001000352C0008372C0008392C0008000000009F
:100020000000000000000000000000003B2C000861
:100030003D2C0008000000003F2C0008712400083F
:10004000093300080D330008113300081533000888
:10005000193300081D330008213300082533000838
:10006000293300082D3300083133000835330008E8
:10007000393300083D330008413300084533000898
:10008000493300084D330008513300085533000848
:10009000593300085D3300086133000865330008F8
:1000A000693300086D3300087133000875330008A8
:1000B000793300087D330008813300088533000858
:1000C000893300088D330008913300089533000808
:1000D00099330008BD160008C7160008D11600089D
:1000E000A9330008AD330008B1330008B533000868
:1000F000B9330008BD330008C1330008C533000818
:10010000C9330008CD330008D1330008D5330008C7
:10011000D9330008DD330008E1330008E533000877
:10012000E9330008ED330008F1330008F533000827
:10013000F9330008FD3300080134000805340008D5
:10014000093400080D340008113400081534000883
:10015000193400081D34000821340008DB1600089B
:10016000293400082D3400083134000835340008E3
:10017000393400083D340008413400084534000893
:10018000493400084D34000800B583B00121222015
:1001900000F0EDFC05220321DFF8940800F079FD62
:1001A00005220421DFF8880800F073FD05220521EF
:1001B000DFF87C0800F06DFD02208DF804000220BD
:1001C0008DF8050000208DF8060002208DF807004C
:1001D0003820009000A9DFF8580800F005FDDFF88E
:1001E00054084FF48071018001208DF80400002034
:1001F0008DF8060002208DF8050000208DF807001C
:100200004FF48070009000A9DFF82C0800F0ECFC9F
:1002100000F015F800F05DFBDFF820084FF4807166
:100220000180042000F09AFBDFF808084FF4807189
:10023000018000F0EBFB002000F0B6FB07BD00B52D
:1002400085B001214FF4805000F0AFFC0020ADF8E4
:1002500000004FF48270ADF802000020ADF80400F9
:100260000220ADF806000120ADF808004FF4007040
:10027000ADF80A000820ADF80C000020ADF80E0023
:100280000720ADF8100000A9DFF8B40700F02EFD3C
:100290000021DFF8AC0700F049FD0121DFF8A007DD
:1002A00000F044FD05B000BD10B5040000F06FFB88
:1002B000DFF888074FF480710180202000F04EFBAA
:1002C000200CC0B200F04AFB200AC0B200F046FB8E
:1002D0002000C0B200F042FBDFF858074FF48071F5
:1002E000018000F093FB10BD80B500F050FBDFF8FB
:1002F0004C074FF480710180C72000F02FFBDFF81E
:1003000034074FF48071018000F080FB01BD2DE9BE
:10031000F04104000D001600DFF828070068DFF840
:100320002817884262D1B6B2022E08D2B6B2022095
:1003300096FBF0F101FB1061002940F09B8000F07A
:1003400026FBDFF8F8064FF480710180AD2000F045
:1003500005FB280CC0B200F001FB280AC0B200F077
:10036000FDFA2800C0B200F0F9FA207800F0F6FAA1
:10037000641C207800F0F2FA641CDFF8B8064FF431
:100380008071018000F042FBB61E00200700B6B26B
:10039000022096FBF0F0874218D2DFF8A0064FF457
:1003A00080710180AD2000F0D9FA207800F0D6FAF3
:1003B000641C207800F0D2FA641CDFF878064FF451
:1003C0008071018000F022FB7F1CE0E7DFF86C0603
:1003D0004FF480710180042000F0C0FADFF8540669
:1003E0004FF48071018000F011FB43E00020804653
:1003F000B6B24FF4807096FBF0F080452BD200F03F
:10040000C6FADFF838064FF480710180022000F050
:10041000A5FA280CC0B200F0A1FA280AC0B200F078
:100420009DFA2800C0B200F099FA00200700FF2FC3
:1004300005D8207800F092FA641C7F1CF7E7DFF8FB
:10044000F4054FF48071018000F0E0FA05F2001528
:1004500018F10108CCE7DFF8E4054FF48071018062
:10046000042000F07BFADFF8CC054FF480710180A6
:1004700000F0CCFABDE8F08170B504000D00160064
:10048000002E05D0DFF8BC0540697119884200D202
:1004900022E0DFF8A8054FF480710180032000F00E
:1004A0005DFA280CC0B200F059FA280AC0B200F078
:1004B00055FA2800C0B200F051FA3000461E00285C
:1004C00005D0A52000F04AFA2070641CF5E7DFF89B
:1004D00064054FF48071018070BDF8B504000D0013
:1004E0001600DFF8600540693119884201D2012009
:1004F00032E0002E01D100202EE0DFF840054FF45D
:1005000080710180032000F029FA200CC0B200F0B5
:1005100025FA200AC0B200F021FA2000C0B200F093
:100520001DFA3000461E002810D0A52000F016FA53
:1005300007002800451C0078FFB2B842F1D0DFF870
:10054000F4044FF480710180012005E0DFF8E40439
:100550004FF4807101800020F2BD70B403000020D0
:100560000400A4B292B294420DD2187805005B1C2C
:10057000EDB2ED430800411C0078054201D0012096
:1005800002E0641CEDE7002070BC70472DE9F84FD5
:1005900004000D001600B6B2002E01D101209DE02E
:1005A000DFF8A0044069854201D3002096E0DFF81F
:1005B0009404008BB6B2B04201D200208EE0B6B2F5
:1005C00032002900DFF88404FFF756FFB6B232008C
:1005D0002100DFF8780400F0C7FB002801D10120DA
:1005E0007CE000208246320092B22100DFF85C04F9
:1005F000FFF7B3FF002801D001208246DFF8440452
:10060000008B401E35EA00008146DFF83804008B7D
:10061000B6B286420FD100200700DFF82804008B15
:10062000BFB287421ED2BFB2385DBFB2DFF81C1422
:1006300078547F1CF1E7DFF80C04028B4946DFF8A1
:100640000C04FFF719FFDFF8FC03008B401E284065
:100650000700B6B232002100BFB2DFF8F00338184D
:1006600000F0B3FB0020834600200700BFB2032F39
:1006700032D25FFA8AFABAF1010F02D14846FFF787
:1006800013FEDFF8C003028B4946DFF8C003FFF713
:100690003EFEB6B2320021002800FFF71EFF002800
:1006A00002D10120834617E0B6B2320021002800B3
:1006B000FFF713FF002802D1012083460CE0002041
:1006C000804642F210701FFA88F8804502D218F175
:1006D0000108F6E77F1CC9E75846C0B2BDE8F28FB3
:1006E0002DE9F84F04000D009346002600275FF027
:1006F00000085FF000095FF0000ADFF84803008B94
:10070000B5FBF0F100FB11508046DFF83803008B99
:10071000B0EB080081461FFA8BFBCA48008B9BFB9D
:10072000F0F006001FFA8BFBC648008B9BFBF0F134
:1007300000FB11B007001FFA88F8B8F1000F2ED1A6
:10074000B6B2002E0AD15A4692B229002000FFF715
:100750001DFF002840F09880002096E03000461EE3
:1007600080B2002811D0B748028B29002000FFF783
:100770000DFF002801D1002087E0B248008B15FA58
:1007800080F5B048008B0419E8E73A0092B22900DE
:100790002000FFF7FBFE002876D1002075E0B6B2FE
:1007A000002E2BD11FFA89F9BFB2B9451CD2B7EB85
:1007B000090082464A4692B229002000FFF7E6FE71
:1007C000002801D1002060E015FA89F51FFA89F9A7
:1007D00019EB0404524692B229002000FFF7D6FE1E
:1007E000002851D1002050E05A4692B22900200042
:1007F000FFF7CCFE002847D1002046E0BBEB090BF9
:100800001FFA8BFB8F48008B9BFBF0F006001FFA52
:100810008BFB8C48008B9BFBF0F100FB11B00700B9
:100820004A4692B229002000FFF7B0FE002801D10D
:1008300000202AE015FA89F51FFA89F919EB04045A
:100840003000461E80B2002811D07E48028B29005D
:100850002000FFF79BFE002801D1002015E0794819
:10086000008B15FA80F57748008B0419E8E7BFB2D2
:10087000002F09D03A0092B229002000FFF786FE2F
:10088000002801D1002000E00120BDE8F28FF8B57A
:100890006A484FF4807101809F2000F05FF8A52026
:1008A00000F05CF80500A52000F058F80600A5202F
:1008B00000F054F807005F484FF480710180EDB2FA
:1008C000F6B2300250EA0540FFB23843040020007F
:1008D000F2BD80B5FFF7DBFF5A4908605948006850
:1008E0005949884206D05A49884210D0594988420D
:1008F0001AD026E05849594800F072FA51485FF47E
:10090000001141614F484FF48051018325E0544963
:10091000524800F065FA4B485FF4001141614948C4
:100920004FF48051018318E04E494C4800F058FACA
:1009300044485FF40001416142484FF48051018313
:100940000BE04949454800F04BFA3E485FF400117E
:1009500041613C484FF48051018301BD10B5040052
:100960000221374800F0F4F90028F9D0E4B2210060
:1009700089B2334800F0EAF90121314800F0E8F982
:100980000028F9D02E4800F0DFF9C0B210BD80B5C4
:100990002A484FF4807101800620FFF7DFFF2548C9
:1009A0004FF48071018001BD10B504002548006836
:1009B000254988421AD121484FF480710180502086
:1009C000FFF7CCFF1B484FF4807101801B484FF4A8
:1009D000807101800120FFF7C1FF2000C0B2FFF746
:1009E000BDFF14484FF4807101800EE013484FF4AE
:1009F000807101800120FFF7B1FF2000C0B2FFF736
:100A0000ADFF0C484FF48071018010BD80B50B48DC
:100A10004FF4807101800520FFF7A0FFA520FFF7AC
:100A20009DFFC007FAD403484FF48071018001BDD7
:100A30000004024018140240001402401A1402403C
:100A400000300140143200204125BF005400002036
:100A50001520C2001740EF0098320008183200201D
:100A6000A4320008B032000858320008F0B4002167
:100A700000220023022400250226DFF84C713F6883
:100A800017F00C0739000F00002F04D0042F06D0F8
:100A9000082F08D03CE0DFF8387107603BE0DFF852
:100AA0003471076037E0DFF824713F68C7F380577F
:100AB0003D00DFF818713F6817F03F073E00002D3A
:100AC0000DD0DFF81071B7FBF6F7DFF800C1DCF8E6
:100AD00000C0CCF3881C0CFB07F73B000CE0DFF8F0
:100AE000F070B7FBF6F7DFF8E4C0DCF800C0CCF339
:100AF000881C0CFB07F73B00DFF8D0703F68C7F39A
:100B000001477F1C7F003C00B3FBF4F7076002E065
:100B1000DFF8BC700760DFF8B0703F6817F0F007CF
:100B200039000909DFF8B070CF5D3A000768D74097
:100B30004760DFF894703F6817F4E0573900890A7E
:100B4000DFF89470CF5D3A004768D7408760DFF8E0
:100B500078703F6817F460473900490BDFF8787008
:100B6000CF5D3A004768D740C760F0BC7047C9B254
:100B7000002905D0194A12680243184B1A6004E094
:100B8000164A12688243154B1A607047C9B2002991
:100B900005D0134A12680243114B1A6004E0104A50
:100BA000126882430E4B1A607047C9B2002905D003
:100BB0000C4A126802430B4B1A6004E0094A12689F
:100BC0008243084B1A6070470838024004380240DC
:100BD0000024F40040787D014000002030380240BD
:100BE0004038024044380240F0B400220023002480
:100BF00000252A00102A4AD2012595402B000D68B5
:100C00001D402C009C4240D1056803261700FFB20E
:100C10007F00BE40B543056005680E791700FFB23E
:100C20007F00BE40354305600D79012D02D00D795E
:100C3000022D1AD1856803261700FFB27F00BE403F
:100C4000B543856085684E791700FFB27F00BE40CE
:100C500035438560456801269640B5434560456843
:100C60008E799640B6B235434560C56803261700B5
:100C7000FFB27F00BE40B543C560C568CE7917009E
:100C8000FFB27F00BE403543C560521CB2E7F0BCE6
:100C90007047F0B400230024D2B211F00705EDB282
:100CA000AD0012FA05F52B0089B2CD1010EB8505C9
:100CB00089B2CE1010EB8606366A0F2711F0070CAA
:100CC0005FFA8CFC5FEA8C0C17FA0CF7BE432E62BD
:100CD00089B2CD1010EB85052D6A1D432C0089B219
:100CE000CD1010EB85052C62F0BC704710B40022CB
:100CF00003881A0012F441520B884C8823438C88D5
:100D00002343CC8823430C8923434C8923438C8978
:100D10002343CC8923431A430280838B4FF2FF7411
:100D2000234083830B8A038210BC7047C9B2002919
:100D300004D0028852F04002028004E002884FF69C
:100D4000BF731A4002807047808970478181704765
:100D50000200002013890B4202D00123180001E099
:100D600000231800C0B270470300002013F0030FE7
:100D700009D0521E22BF13F8010B11F801CBB0EBC2
:100D80000C00F3D07047121F22BF53F8040B51F828
:100D900004CB6045F7D0121D0AD200BA9CFA8CFC35
:100DA000B0EB0C0038BF6FF0000088BF0120704727
:100DB000521E22BF13F8010B11F801CBB0EB0C004F
:100DC000F6D0521C08BF1046704770B504000D00E5
:100DD000160032002900200000F024F8200070BD29
:100DE0005FEA000C830706D011F8013B00F8013BD5
:100DF000B3B18307F8D10A68B2F1013323EA0203E1
:100E000013F0803F02BF40F8042B51F8042FF3E7A2
:100E100011F8013B00F8013B13B111F8013BF9E770
:100E20006046704762B38B0708D0521E11F8013B31
:100E300000F8013B00F024808B07F6D1830740F0D7
:100E4000208000BF103A07D330B4B1E83810103A10
:100E5000A0E83810F9D230BC530724BFB1E808101D
:100E6000A0E8081044BF51F8043B40F8043BD20707
:100E700024BF31F8022B20F8022B44BF0B780370FB
:100E80007047083A07D3B1E80810083A40F8043B25
:100E900040F804CBF7D25307E4E710B450F8041B32
:100EA00081B102681218001D50F8043BDC0744BFF2
:100EB000A9F10104E31852F8044B43F8044B091F4D
:100EC000F9D1EBE710BC704780B500F065F800F091
:100ED00059F900F0E3FA01BD0100C9B2002902D1BD
:100EE000DFF800081CE0C9B2012902D1DFF8F807D9
:100EF00016E0C9B2022902D1DFF8F00710E0C9B24A
:100F0000032901D100200BE0C9B2042901D100203E
:100F100006E0C9B2052902D1DFF8D40700E00020BD
:100F20007047F8B504000D0016002000C0B2FFF7AE
:100F3000D3FF0700002F0AD0F869002801D0F86914
:100F40008047320092B22900380000F0DDFAF1BD8E
:100F500013B50400012201A92000C0B2FFF7E1FF90
:100F600013BD70B504000D002000C0B2FFF7B4FF40
:100F70000600002E01D1002003E02900300000F01F
:100F8000F9FA70BDDFF86C07042101807047DFF8C3
:100F90006807042101807047DFF84807DFF85C1715
:100FA0000160DFF84007DFF858174160DFF83407C9
:100FB000DFF850178160DFF82C074FF480618181E2
:100FC000DFF820074FF48061C181DFF818070021A6
:100FD0000182DFF8100700214182DFF808070021B5
:100FE000C182DFF8000700210183DFF8F806002145
:100FF0004183DFF8F00600218182DFF8E806002156
:10100000C161DFF8E00600210162DFF8D8060021A7
:101010004162DFF8D406DFF8F0160160DFF8C80699
:10102000DFF8E8164160DFF8C006DFF8E4168160FB
:10103000DFF8B40601218181DFF8AC064FF40061CE
:10104000C181DFF8A40600210182DFF89C0600219F
:101050004182DFF894060021C182DFF88C0600216E
:101060000183DFF8840600214183DFF87C0600213C
:101070008182DFF874060021C161DFF86C0600216F
:101080000162DFF8640600214162DFF86006DFF8E4
:1010900084160160DFF85406DFF87C164160DFF843
:1010A0004C06DFF878168160DFF840064FF4806167
:1010B0008181DFF838064FF48061C181DFF82C06AA
:1010C00000210182DFF8240600214182DFF81C069E
:1010D0000021C182DFF8140600210183DFF80C062D
:1010E00000214183DFF8040600218182DFF8FC053E
:1010F000DFF82C16C161DFF8F405DFF8281601626D
:10110000DFF8E80500214162DFF8E405DFF8181692
:101110000160DFF8DC05DFF814164160DFF8D00568
:10112000DFF80C168160DFF8C8054FF4806181811B
:10113000DFF8BC054FF48061C181DFF8B405002100
:101140000182DFF8AC0500214182DFF8A40500210F
:10115000C182DFF89C0500210183DFF8940500219E
:101160004183DFF88C0500218182DFF884050021AE
:10117000C161DFF87C0500210162DFF87405002100
:101180004162704700B587B001210120FFF7EFFCF5
:1011900001211020FFF709FD07220921DFF894053E
:1011A000FFF777FD07220A21DFF88805FFF771FDB9
:1011B00000208DF8060001208DF8070002208DF830
:1011C00004004FF40070009002208DF8050000A983
:1011D000DFF86005FFF708FD02208DF804004FF4EA
:1011E0008060009000A9DFF84C05FFF7FDFC5FF47C
:1011F000E13002900020ADF80C000020ADF80E00A8
:101200000020ADF810000020ADF814000C20ADF85F
:10121000120002A9DFF8E40400F09EFA012240F275
:101220002551DFF8D80400F02BFB0121DFF8CC04B6
:1012300000F010FB4021DFF8C40400F04CFB01215A
:101240000120FFF794FC01215FF40030FFF79EFCC2
:1012500007220321DFF8DC04FFF71BFD00208DF8D7
:10126000060001208DF8070002208DF804000220FE
:101270008DF804000820009002208DF8050000A9D8
:10128000DFF8B004FFF7B0FC4FF4165002900020D6
:10129000ADF80C000020ADF80E000020ADF81000F5
:1012A0000020ADF814000420ADF8120002A9DFF808
:1012B000580400F051FA012240F22551DFF84804A9
:1012C00000F0DEFA0121DFF8400400F0C3FA40210B
:1012D000DFF8340400F0FFFA01210220FFF747FC99
:1012E00001208DF8040000208DF8060000208DF804
:1012F000070003208DF805000420009000A9DFF806
:101300003804FFF771FC01210220FFF730FC0121B6
:101310005FF48020FFF73AFC07220A21DFF8180467
:10132000FFF7B7FC07220B21DFF80C04FFF7B1FC35
:1013300000208DF8060001208DF8070002208DF8AE
:1013400004004FF48060009002208DF8050000A991
:10135000DFF8E403FFF748FC02208DF804004FF4A7
:101360000060009000A9DFF8D003FFF73DFC4FF4C8
:10137000165002900020ADF80C000020ADF80E00D1
:101380000020ADF810000020ADF814000C20ADF8DE
:10139000120002A9DF4800F0DFF9012240F22551D6
:1013A000DC4800F06DFA0121DA4800F053FA4021E0
:1013B000D84800F090FA01214420FFF7D8FB012122
:1013C0002020FFF7F2FB08220E21DC48FFF761FC2A
:1013D00008220721DA48FFF75CFC08220821D748D9
:1013E000FFF757FC08220F21D448FFF752FC0020DA
:1013F0008DF8060001208DF8070002208DF804000A
:101400004FF48040009002208DF8050000A9CB48E1
:10141000FFF7EAFB02208DF804008020009000A96D
:10142000C748FFF7E1FB02208DF804004FF48070FD
:10143000009000A9C148FFF7D7FB02208DF80400F7
:101440004FF40040009000A9BC48FFF7CDFB5FF4CB
:10145000E13002900020ADF80C000020ADF80E0045
:101460000020ADF810004FF44070ADF814000C20CF
:10147000ADF8120002A9AC4800F06EF9012240F26A
:101480002551A94800F0FCF90121A74800F0E2F934
:101490004021A54800F01FFA07B000BD80B54FF409
:1014A000E06000F055FA25208DF8000000208DF84E
:1014B000020001208DF8030000A800F04EFA26205B
:1014C0008DF8000001208DF8020001208DF8030046
:1014D00000A800F042FA27208DF8000002208DF8C5
:1014E000020001208DF8030000A800F036FA472022
:1014F0008DF8000005208DF8020001208DF8030012
:1015000000A800F02AFA01BDF8B504000D0016008D
:1015100000200700BFB2B6B2B74224D2012181F346
:101520001088A18A0800002181F31088A18980B267
:101530008842F3D2218A6268BFB27B5D8B5401215D
:1015400081F31088218A491C2182A28989B29142A3
:1015500001D300202082A08A401CA082002080F3BA
:1015600010887F1CD6E7012240F22771206800F026
:1015700087F9F1BD10B40200012080F31088508B70
:101580000300002080F310889BB2002B01D10020C3
:1015900016E0108B9468005D0870012080F31088BD
:1015A000108B401C1083D48980B2A04201D300204C
:1015B0001083508B401E5083002080F31088012040
:1015C00010BC704710B5040040F22551206800F0AF
:1015D00088F900281DD0206800F04EF9E18AA26841
:1015E0008854E08A401CE082E18980B2884201D3BD
:1015F0000020E082608BE189884202D2608B401C2F
:101600006083608B012804D1606A002801D0606A81
:10161000804740F22771206800F063F9002823D04A
:10162000A08A00280CD1002240F22771206800F027
:1016300027F9012240F22661206800F021F93CE000
:10164000608A6168415C89B2206800F011F9608AA3
:10165000401C6082A18980B2884201D30020608250
:10166000A08A401EA08228E040F22661206800F097
:1016700038F9002821D0A08A00280BD1002240F29E
:101680002661206800F0FCF8206A002815D0206A46
:10169000804712E0608A6168415C89B2206800F08E
:1016A000E7F8608A401C6082A18980B2884201D339
:1016B00000206082A08A401EA08210BD80B509482B
:1016C000FFF780FF01BD80B50748FFF77BFF01BD35
:1016D00080B50648FFF776FF01BD80B50448FFF7E7
:1016E00071FF01BD743100209C310020C431002005
:1016F000EC310020180402401A040240001001409E
:1017000054180020541C0020004400404A3200209D
:101710005410002000480040542000205424002091
:10172000850F00088F0F0008001401405428002086
:10173000542C002000000240000402400018024027
:101740000008024038B504000D002100C9B2002095
:10175000FFF7FEFB200032BD2DE9F04385B0040009
:101760000D005FF00009002600275FF00008A8893F
:101770000028208A814639F44059E88850EA09094E
:10178000A4F81090A0898146314810EA0909A88878
:10179000298908436989084350EA0909A4F80C908B
:1017A000A08A814639F44079A88950EA0909A4F849
:1017B000149000A8FFF75AF92348844202D0234826
:1017C000844202D10398060001E002980600A08935
:1017D000000408D5192000FB06F029684900B0FB79
:1017E000F1F0070007E0192000FB06F029688900E6
:1017F000B0FBF1F007006420B7FBF0F00001814678
:101800005FEA1910642101FB10708046A089000472
:101810000AD55FEAC80032306421B0FBF1F010F065
:10182000070050EA090909E05FEA08103230642134
:10183000B0FBF1F010F00F0050EA0909A4F808908D
:1018400005B0BDE8F0830000001001400014014025
:10185000F3E9FFFFC9B2002904D0828952F4005293
:10186000828104E082894DF6FF731A4082817047BD
:10187000CA05D20D828070478088C005C00D7047B0
:10188000F0B4002300240025002640F66A1789B230
:10189000B94206000F00FFB27F09FFB23B0089B2D8
:1018A00011F01F073C000127A7403D00012B01D18B
:1018B0000C3604E0022B01D1103600E01436D2B20F
:1018C000002A03D037682F43376002E03768AF4300
:1018D0003760F0BC704789B28A0589B2CA4302807A
:1018E000704770B40200002300250024002040F659
:1018F0006A1689B2B1420E00F6B27609F6B2340029
:1019000089B211F01F063500012616FA05F5012CE3
:1019100002D19689354006E0022C02D1168A354064
:1019200001E0968A354089B20E0AB6B2330001262C
:1019300016FA03F316883340002D04D0002B02D092
:101940000126300001E000263000C0B270BC7047B4
:101950001C4901431C4A11607047F0B40023002168
:101960000F22C478002C21D0174C246814F4E064B2
:10197000D4F5E064240A2300D3F104042100D2B298
:101980001A4144788C4023008478144023431B017F
:1019900004780E4D6355047864110D4D01260778C7
:1019A00017F01F07BE4045F8246009E00478641171
:1019B000084D0126077817F01F07BE4045F8246040
:1019C000F0BC70470000FA050CED00E000E400E018
:1019D00000E100E080E100E010B582B00024DFF813
:1019E0003824DFF838040168DFF8340400F054FAD2
:1019F000DFF82804028BDFF824044069010DDFF8CA
:101A0000240400F049FA00F0D5F900F066FA00A9C4
:101A10000020FFF7A6FA002871D09DF800003128B9
:101A200012D032281AD0332822D0342827D0352893
:101A30002DD0362833D058284BD05A283AD0782881
:101A400047D07A2836D058E04FF480520021DFF892
:101A5000D80300F021FA00F07AF850E04FF48052F9
:101A60000021DFF8C80300F017FA00F0DFF846E0C5
:101A7000DFF8BC0300F010FA00F05EF93FE0DFF899
:101A8000B40300F009FA552000F001F937E0DFF85F
:101A9000A80300F001FAAA2000F0F9F82FE0DFF81F
:101AA0007C034069010DDFF8940300F0F5F900F0C4
:101AB0008DF824E0002C01D0641E03E0DFF88003E1
:101AC00000F0EAF94FF4806000FB04F000F042F906
:101AD00015E0DFF848034069800A401E844201D2C5
:101AE000641C03E0DFF85C0300F0D6F94FF480607B
:101AF00000FB04F000F02EF901E000F05BF900F0CB
:101B000067FA012816D0022815D0042814D0052819
:101B100013D0072812D0082811D00A2810D00D2879
:101B20000FD010280ED013280DD016280CD017284F
:101B30000BD00BE069E768E767E766E765E764E70E
:101B400063E762E761E760E75FE75EE75DE770B57F
:101B5000ADF5805D00F06BFC04004FF48052002175
:101B600000A8FEF789FC00F062FC0500B64800F012
:101B700093F900200600B6B2B6F5805F18D2B6B26F
:101B800000A8315CB14800F087F9B6B216F01F002A
:101B90001F2803D19DA000F07FF907E0B6B216F030
:101BA0001F000F2802D19AA000F076F9761CE2E718
:101BB0005FF47A10291B90FBF1F32A1B4FF480513C
:101BC000A34800F069F90DF5805D70BDF0B581B0F6
:101BD000ADF5805D00F02BFC040000200700002024
:101BE0000600B6B28D484069B6EB103F09D24FF4FB
:101BF0008052390000A8FEF73FFC761C17F580578D
:101C0000EFE700F014FC0500844840694FF47A7156
:101C10004843291BB0FBF1F32A1B804841698C48DB
:101C200000F03AF901B00DF5805DF0BD70B5ADF58D
:101C3000805D00200400A4B2B4F5805F04D2A4B299
:101C400000A82454641CF6E700F0F1FB05004FF4F3
:101C50008052002100A8FEF743FD002803D17D48F3
:101C600000F01AF910E000F0E2FB06007A4800F0FC
:101C700013F95FF47A10711B90FBF1F3721B4FF4B0
:101C80008051764800F008F90DF5805D70BDF0B523
:101C900081B0ADF5805D040000200700BFB2B7F54C
:101CA000805F04D2BFB200A83C547F1CF6E700F06E
:101CB000BEFB050000200700584840695749098BC2
:101CC000B0FBF1F0BFB2874220D25448028BBFB2C2
:101CD0005248008B00FB07F100A8FEF701FD002829
:101CE00003D15C4800F0D8F822E04AA000F0D4F814
:101CF000BFB2781C802190FBF1F202FB1102002A96
:101D000002D142A000F0C8F87F1CD5E700F08FFB9D
:101D10000600424840694FF47A714843711BB0FB9A
:101D2000F1F3721B3D484069810A4D4800F0B4F858
:101D300001B00DF5805DF0BD38B500F078FB040012
:101D4000FEF7D2FA00F073FB0500291B454800F0AE
:101D5000A3F831BD30B5ADF2044D04004FF48062FC
:101D6000210000A8FEF788FB21003F4800F094F80E
:101D700000200500ADB2B5F5806F18D2ADB200A855
:101D8000295C324800F088F8ADB215F01F001F281A
:101D900003D11EA000F080F807E0ADB215F01F00DF
:101DA0000F2802D11AA000F077F86D1CE2E70DF2BF
:101DB000044D30BD80B52D4800F06EF82C4800F081
:101DC0006BF84FF4805200212A4800F065F84FF478
:101DD00080520021284800F05FF8284800F05CF8A5
:101DE000274800F059F8274800F056F8264800F038
:101DF00053F8264800F050F8254800F04DF82548E3
:101E000000F04AF801A000F047F801BD0D0A0000FB
:101E1000202D20002E000000183200201432002057
:101E20005C2E0008842E0008E42C0008142D000805
:101E300044300008242F0008482F0008AC2E00086A
:101E4000683200087832000864300008D432000894
:101E5000402C0008CC310008E0310008442D000877
:101E6000B02C00086C2F000884300008742D000886
:101E7000F4310008A42D0008D42D0008C430000857
:101E8000902F0008B42F0008D42E0008D82F000887
:101E9000FC2F0008E03000080EB400B582B003A9A2
:101EA000009100AB02460121034878440A3000F05B
:101EB000E3FA06BC5DF810FBF112000080B5FFF7F5
:101EC00003F800F06DF800F03AFAFEF75DF901BD95
:101ED00080B500F0EDF901BD70477047DFF8780379
:101EE0000068C00501D4012000E000207047DFF841
:101EF0006C030068800401D4012000E000207047DA
:101F0000DFF854030068000501D4012000E0002040
:101F10007047DFF84C030068400701D4012000E05F
:101F200000207047DFF838030068000701D4012063
:101F300000E000207047DFF82C030068000501D4A2
:101F4000012000E000207047DFF81C030068000655
:101F500001D4012000E000207047DFF8040300688E
:101F6000000401D4012000E00020704780B5FFF795
:101F7000B5FF002805D0FFF7BAFF002801D00120E7
:101F800000E0002002BD80B5FFF7A8FF002805D0C3
:101F9000FFF7ADFF002801D0012000E0002002BDC6
:101FA00080B500F079F800F02EF801BDDFF8BC1222
:101FB000C97ADFF8B8228854AC49C97A491CAB4ABF
:101FC000D172C9B20A2902D3A8490022CA72704745
:101FD000A648807AA54AD27A904201D1002011E029
:101FE000A248807AA14A805C0100A048807A401C07
:101FF0009E4A9072C0B20A2802D39C480022827284
:102000000800C0B2704700B583B001214FF4F270F0
:10201000FEF7ADFD00208DF8040000208DF80600CD
:1020200000208DF8070002208DF805004FF4807025
:10203000009000A98F48FEF7D7FD4FF400500090A4
:1020400000A98D48FEF7D0FD4FF40060009000A974
:102050008848FEF7C9FD0420009000A98748FEF7D4
:10206000C3FD0820009000A98448FEF7BDFD4FF491
:102070000060009000A98248FEF7B6FD8020009025
:1020800000A98048FEF7B0FD4FF40040009000A981
:102090007A48FEF7A9FD07BD744900228A72734988
:1020A0000022CA72714900220A7300210800C0B2DE
:1020B0000A281FD2C0B26E4911EB001164220A81B6
:1020C000C0B26B4911EB001102220A71C0B268491B
:1020D00011EB001100228A72C0B2654911EB0011A8
:1020E0000022CA72C0B2624911EB001100220A73C9
:1020F000401CDCE75E4964220A875D49052281F8BD
:102100003B205B496422A1F848205949052281F807
:102110004B2057496422A1F858205549052281F8DF
:102120005B2053496422A1F868205149052281F8B7
:102130006B204F49544A0A604D49544A0A614C4940
:10214000534A0A624A49534A0A634949524A0A644D
:102150004749524A0A654649514A0A664449514A22
:102160000A674349504AC1F8802041494F4AC1F8A3
:102170009020704738B50400E4B23D4810EB0410DD
:10218000050028688047002845D02879052802D214
:10219000052028715DE028790A2803D22879401C9F
:1021A000287156E0A87A002809D10120A872E4B26B
:1021B000032000FB04F0401CC0B2FFF7F7FE2889A3
:1021C000012846D3E888298988420FD2E888401C34
:1021D000E880298980B288423BD1E4B2032000FB29
:1021E00004F0C01CC0B2FFF7E1FE32E0E87A01283B
:1021F0002FD3287B401C2873E97AC0B2884228D3A9
:1022000000202873E4B2032000FB04F0401CC0B29D
:10221000FFF7CCFE1DE02879062802D3052028719F
:1022200013E02879002803D02879401E28710CE09B
:10223000A87A012809D10020A872E4B2032000FB8B
:1022400004F0801CC0B2FFF7B1FE0020E88000203F
:10225000287331BD00000000102002401008024029
:10226000101C0240101402401018024030320020AE
:10227000543000200020024000080240001C0240B0
:102280000014024000180240DD1E0008EF1E000886
:10229000011F0008131F0008251F0008371F000832
:1022A000491F00085B1F00086D1F0008871F0008FA
:1022B00010B500200400E4B20A2C05D22000C0B200
:1022C000FFF758FF641CF6E710BD50F8041B61B11E
:1022D00050F8042BD30744BFA9F101039A18002337
:1022E00042F8043B091FFAD1EFE7704740B20028DB
:1022F00008D540B210F00F02524BD2180B0102F871
:10230000043C03E040B2504A0B018354704710B5BF
:102310000400601EB0F1807F01D301200EE0601E3A
:102320004A4908600F215FF0FF30FFF7DFFF4848A0
:1023300000210160474807210160002010BD10B551
:1023400000200400E4B2042C1DD2E4B20C20424967
:1023500000FB041000214160E4B20C203E4900FB68
:10236000041000218160E4B20C203B4900FB041002
:1023700000214170E4B20C20374900FB0410002119
:102380000170641CDEE7354800684FF47A71B0FBD9
:10239000F1F0FFF7BCFF10BD10B531480068002810
:1023A00009D02F480068401E2D490860002802D13E
:1023B0002C480121017000200400E4B2042C08D252
:1023C000E4B20C20244900FB041000F020F8641C47
:1023D000F3E725480068401C23490860224800684C
:1023E0007FF00041884202D11F4800210160FFF7C1
:1023F00073FD1E480078401C1C490870C0B20A28B2
:1024000004D31A4800210170FFF762FD10BD416836
:1024100000290BD04168491E4160002906D10121E5
:1024200041700178012901D1816841607047012123
:1024300081F310880C4909680800002181F3108895
:102440007047000018ED00E000E400E014E000E058
:1024500018E000E010E000E04431002050000020CF
:10246000403200204832002044320020493200200F
:1024700080B5FFF791FF01BD2DE9F04F93B0814684
:1024800017461D46029102AE002009E017F8011B15
:102490000298C8470290002800F0CF81B069401C24
:1024A000B061387808B9B069C9E12528EED10020BB
:1024B000F0603061706101E040F0010017F8011F29
:1024C0002029F9D023290ED02B2904D02D2906D07C
:1024D00030290CD00FE040F0020080B2EEE740F06F
:1024E000040080B2EAE740F0080080B2E6E740F07E
:1024F000100080B2E2E72A290DD129680A1D2A605E
:1025000009683162002904D54942316240F0040073
:1025100080B27F1C13E0002131620BE0316A6FF062
:102520000043994205D001EB810302EB43013039AE
:1025300031627F1C3A78A2F130010A29EED3397852
:102540002E291CBF4FF0FF31F1611ED117F8011F7A
:102550002A2906D129680A1D2A600968F1617F1CB1
:1025600013E00021F1610BE0F1696FF00043994243
:1025700005D001EB810302EB43013039F1617F1C8F
:102580003A78A2F130010A29EED3B08439780FF2FB
:10259000843000F0C3F908B117F8010B8DF82E0054
:1025A0009DF82E00682804BF3878682803D162207F
:1025B0008DF82E007F1C0CA8B0603A78252A00F018
:1025C000B980582A30D0632A00F0A380642A18BF4B
:1025D000692A64D06F2A27D0702A1CD0732A04D0AD
:1025E000752A18BF782A1FD09DE02868011D296030
:1025F00000687060F269002A03D500F09BF9306131
:102600009DE0002100F0B2F900281ABF7168401A5D
:10261000F069306193E02868011D2960006801902D
:102620000CA87060782170E09DF82E306C2B08BFEC
:10263000286811D0712B08BF286802D06A2B28683F
:102640000AD1C01D20F007002860014601F10800F2
:102650002860D1E9000102E0011D296000680190B5
:10266000682B04BF01A8008803D0622B02D101A807
:102670000078019096F82400000741D501980028C1
:102680003ED042F0200078283AD1F0680CA93023DF
:102690004354401C411CF1600CA9425430E09DF8A9
:1026A0002E00622802D0682806D00BE02868011DA1
:1026B000296090F9000009E02868011D2960B0F93F
:1026C000000003E02868011D2960006801900028CF
:1026D00005D5F068411CF1600CA92D230FE0B08CEA
:1026E000810705D5F068411CF1600CA92B2306E099
:1026F000C00705D5F068411CF1600CA920234354A4
:10270000F0680CA940187060114601A800F09AF812
:1027100015E0F068411CF16029680A1D2A600CAAC6
:10272000096881540BE0F068411CF1600CA9252375
:10273000435422B1F068411CF1600CA942547F1C43
:10274000306AF168401A7169401A3169A0EB0108DA
:1027500096F82400400719D420208DF80000B8F125
:10276000010F13DB44464FF0010A0DF1000B1BF87B
:10277000011B0298C847029000285ED0B069401C37
:10278000B061BAF1010AF2D1641EECD1F4680DF126
:10279000300A5CB11AF8011B0298C8470290002861
:1027A0004BD0B069401CB061641EF3D130208DF86D
:1027B0000000D6F814B0BBF1010F10DB01240DF1BD
:1027C000000A1AF8011B0298C8470290A8B3B06922
:1027D000401CB061641EF4D1BBF1010BEED1346931
:1027E000D6F804A054B11AF8011B0298C847029009
:1027F00018B3B069401CB061641EF4D196F824008F
:1028000040077FF54EAE20208DF80000B8F1010F93
:10281000FFF647AE01240DF1000A1AF8011B0298D9
:10282000C847029048B1B069401CB061641EF4D141
:10283000B8F101083FF435AEECE74FF0FF3013B0CC
:10284000BDE8F08FF0B4C2686F2908BF082405D036
:1028500041F02003782B14BF0A24102418230568A4
:102860002E46642918BF692902D1002D48BF76423F
:10287000002E04BF056A002D09D1082C27D190F83D
:102880002810090723D517233021D1751FE05D1EBD
:102890002B46B6FBF4F704FB17663036F6B23A2E39
:1028A00024BFA1F1510C6644AE543E0003D08568AC
:1028B0009F18BD42EBD3082C09D190F828100907C6
:1028C00005D5995C302902D05B1E30219954C3F1A3
:1028D000180141619A188260026A914207DA511A1E
:1028E0008161018D4FF6EF721140018510E0002AE1
:1028F0000ED590F8282002F01402102A08D1426A5E
:102900000369D21A8369D21A531A012BA8BF8361B3
:10291000F0BC7047686C747A4C0000000278C9B251
:102920008A421AB11CBF10F8012FF9E718BF002026
:102930007047000000F10103810704D010F8011B6B
:1029400089B18107FAD10268B2F10131914311F0E6
:10295000803F04BF50F8042FF6E710F8011B11B1B7
:1029600010F8011BFBE7C01A70470000C9B28307CB
:1029700006D0521E22D310F8013B9942F7D11FE036
:10298000083A13D302F1040241EA012141EA01416C
:1029900050F8043B121F21BF4B40A3F1013C2CEA2D
:1029A000030C1CF0803FF3D0C9B2001F083210F8AE
:1029B000013B521E28BF91EA030FF8D818BF01202F
:1029C000401E704780B54848006850F47000464982
:1029D00008604648006850F00100444908604448D7
:1029E0000021016041480068424908403F490860B1
:1029F0004148424901603D48006830F480203B492D
:102A000008603F480021016000F005F83D485FF094
:102A10000061016001BD82B00020019000200090A3
:102A20003248006850F48030304908602F48006810
:102A300010F4003000900198401C0190009800288C
:102A400003D10198B0F5A04FF0D128480068800369
:102A500002D50120009001E000200090009801289C
:102A60003ED12948006850F0805027490860274827
:102A7000006850F44040254908601D481C49096819
:102A800001601B48006850F400401949086018486C
:102A9000006850F4A0501649086017481C490160AE
:102AA0001248006850F08070104908600F480068B4
:102AB0008001FBD5174840F2057101600C480068A1
:102AC000800880000A4908600948006850F0020048
:102AD000074908600648006810F00C000828F9D182
:102AE00002B070470000000088ED00E000380240AE
:102AF00008380240FFFFF6FE043802401030002480
:102B00000C38024008ED00E0403802400070004000
:102B100019544007003C024080B5FFF7CFF900F0A0
:102B200004F8FEF759FF002002BD80B516A0FFF79C
:102B3000B3F91748FFF7B0F916491748FFF7ACF992
:102B400012A11648FFF7A8F915491648FFF7A4F98E
:102B50000023032201211448FFF79EF91348FFF7D1
:102B60009BF91348FFF798F91248FFF795F91248B7
:102B7000FFF792F91148FFF78FF91148FFF78CF929
:102B80000348FFF789F901BD0A0D0000312E32001C
:102B9000C42B0008FC300008083200081C32000872
:102BA000BC32000830320008782C0008DC32000803
:102BB000503100084432000818310008A4300008E1
:102BC000FC2E00082A2A2A2A2A2A2A2A2A2A2A2ADB
:102BD0002A2A2A2A2A2A2A2A2A2A2A2A2A2A2A2A55
:102BE0002A2A2A2A2A2A2A2A2A2A2A2A2A2A2A2A45
:102BF0002A2A2A2A2A2A2A2A2A2A2A2A2A2A2A2A35
:102C00002A0A0D007047084800221100C9B22A297B
:102C100009D2C9B20A5C054B1A80054A12885206CD
:102C2000FBD5491CF2E7FEE7042E00080410014022
:102C300000100140FEE7FEE7FEE77047704770476F
:102C4000CAFDBEDDB3A4B6C83A202564D7D6BDDA26
:102C50002C20B6C1BAC4CAB13A2025646D732C20A9
:102C6000B6C1CBD9B6C83A202564204279746573C1
:102C70002F730D0A000000002A20B9CCBCFEBFE271
:102C8000B0E6B1BE203A205625642E25642E256478
:102C9000202853544D3332463478785F537464504F
:102CA00065726970685F447269766572290D0A0001
:102CB000CAFDBEDDB3A4B6C83A2025644BD7D6BD45
:102CC000DA2C20D0B4BAC4CAB13A2025646D732C72
:102CD00020D0B4CBD9B6C83A202564422F730D0A50
:102CE000000000000D0AA1BE31202D20B6C1B4AEF7
:102CF000D0D0466C6173682C20B5D8D6B73A3078FE
:102D000025582CB3A4B6C83A2564D7D6BDDAA1BFDE
:102D10000D0A00000D0AA1BE32202D20D0B4B4AEA1
:102D2000D0D0466C6173682C20B5D8D6B73A3078CD
:102D300025582CB3A4B6C83A2564D7D6BDDAA1BFAE
:102D40000D0A0000CAFDBEDDB3A4B6C83A20256452
:102D5000D7D6BDDA2C20D0B4BAC4CAB13A20256483
:102D60006D732C20D0B4CBD9B6C83A202564422F3D
:102D7000730D0A000D0A2A2A2A2A2A2A2A2A2A2A0E
:102D80002A2A2A2A2A2A2A2A2A2A2A2A2A2A2A2AA3
:102D90002A2A2A2A2A2A2A2A2A2A2A2A2A2A2A2A93
:102DA0002A0D0A00A1BE31202D20B6C1B4AED0D06C
:102DB000466C6173682C20B5D8D6B73A3078255860
:102DC0002CB3A4B6C83A2564D7D6BDDAA1BF0D0A84
:102DD00000000000A1BE32202D20D0B4B4AED0D06F
:102DE000466C6173682C20B5D8D6B73A3078255830
:102DF0002CB3A4B6C83A2564D7D6BDDAA1BF0D0A54
:102E0000000000000D0A456E74657220486172640E
:102E10004661756C745F48616E646C65722C2053FA
:102E2000797374656D2048616C742E0D0A00000082
:102E300010B5084979441C31074C7C441A34A1422E
:102E400006D0081D0A68511888470146A142F8D1EA
:102E500010BD00BFCC010000EC010000BCECB2E2F0
:102E6000B5BDB4AED0D0466C6173682C2049442007
:102E70003D20253038582C20D0CDBAC53A202573B6
:102E8000200D0A0020202020C8DDC1BF203A2025C7
:102E9000644DD7D6BDDA2C20C9C8C7F8B4F3D0A189
:102EA000203A202564D7D6BDDA0D0A000D0AA1BE4E
:102EB00036202D20B6C1D5FBB8F6B4AED0D0466CC6
:102EC0006173682C2025644DD7D6BDDAA1BF0D0AE9
:102ED00000000000A1BE36202D20B6C1D5FBB8F6FB
:102EE000B4AED0D0466C6173682C20B2E2CAD4B6BE
:102EF000C1CBD9B6C8A1BF0D0A0000002A20436F7C
:102F000070797269676874207777772E61726D6661
:102F10006C792E636F6D20B0B2B8BBC0B3B5E7D784
:102F2000D30D0A000D0AA1BE34202D20D0B4D5FB4C
:102F3000B8F6B4AED0D0466C6173682C20C8AB3004
:102F4000783535A1BF0D0A000D0AA1BE35202D2010
:102F5000D0B4D5FBB8F6B4AED0D0466C6173682C53
:102F600020C8AB30784141A1BF0D0A00B2C1B3FD0A
:102F7000B4AED0D0466C617368CDEAB3C9A3A12CBE
:102F800020BAC4CAB13A2025646D730D0A0000004E
:102F9000A1BE34202D20D0B4D5FBB8F6B4AED0D02D
:102FA000466C6173682C20C8AB30783535A1BF0DF5
:102FB0000A000000A1BE35202D20D0B4D5FBB8F604
:102FC000B4AED0D0466C6173682C20C8AB30784169
:102FD00041A1BF0D0A000000A1BE5A202D20B6C19C
:102FE000C8A1C7B0314BA3ACB5D8D6B7D7D4B6AF0C
:102FF000BCF5C9D9A1BF0D0A00000000A1BE582030
:103000002D20B6C1C8A1BAF3314BA3ACB5D8D6B701
:10301000D7D4B6AFD4F6BCD3A1BF0D0A00000000D0
:10302000ABF2FFFFF8310000540000200000000068
:103030006BDEFFFF540000001804000000000020B9
:10304000000000000D0AA1BE33202D20B2C1B3FD47
:10305000D5FBB8F6B4AED0D0466C617368A1BF0D95
:103060000A000000B6C1B4AED0D0466C617368B33C
:10307000C9B9A6A3ACCAFDBEDDC8E7CFC2A3BA0DCD
:103080000A000000B5D8D6B7A3BA30782530385832
:103090003B20CAFDBEDDB3A4B6C8203D203130328E
:1030A000340D0A002A20CCD4B1A6B5EA3A206172C8
:1030B0006D666C792E74616F62616F2E636F6D0D3A
:1030C0000A000000A1BE33202D20B2C1B3FDD5FB04
:1030D000B8F6B4AED0D0466C617368A1BF0D0A00DB
:1030E000C6E4CBFBC8CED2E2BCFC202D20CFD4CA94
:1030F000BEC3FCC1EECCE1CABE0D0A0056352D316F
:1031000030325FB4AED0D0466C617368B6C1D0B413
:10311000C0FDB3CC000000002A20456D61696C2021
:103120003A2061726D666C794071712E636F6D200B
:103130000D0A00004EF68851CEF20001086840F4F6
:10314000700008604FF00070E1EE100A7047000058
:103150002A205151202020203A203132393537346D
:1031600034363330200D0A0000F009F8002801D071
:10317000FFF75EFE0020FFF7CFFC00F002F8012011
:10318000704700F001B800000746384600F002F82A
:10319000FBE7000080B5C046C046024A1100182077
:1031A000ABBEFBE72600020038B504460D462846B4
:1031B00000F006F8A84218BF0024204632BD0000E7
:1031C0000149FEF7BFBA00BF00000020D0B4B4AE82
:1031D000D0D0466C617368B3F6B4EDA3A10D0A00BC
:1031E000D0B4B4AED0D0466C617368B3C9B9A6A3ED
:1031F000A10D0A00C7EBD1A1D4F1B2D9D7F7C3FC16
:10320000C1EE3A0D0A0000002A20C0FDB3CCC3FB7A
:10321000B3C62020203A2025730D0A002A20C0FDC5
:10322000B3CCB0E6B1BE2020203A2025730D0A00B1
:103230002A20B7A2B2BCC8D5C6DA2020203A202561
:10324000730D0A002A20CDFACDFA20203A206172AF
:103250006D666C790D0A0000556E6B6E6F772046B7
:103260006C61736800000000D2D1BEADCAC7D7EE52
:10327000C7B00D0A00000000D2D1BEADCAC7D7EE5C
:10328000BAF30D0A000000000148804701480047DA
:10329000C5290008C9320008535354323556463008
:1032A000313642004D5832354C313630364500000B
:1032B0005732355136344256000000003230313436
:1032C0002D30322D32380000C046C046FFF732FFA5
:1032D000FFF74AFF20253032580000002A200A0D4F
:1032E00000000000FFF78EBCFFF78DBCFFF7A2BC0B
:1032F000FFF7A1BCFFF7A0BCFFF79FBCFFF79EBC88
:10330000FFF79DBCFFF7B4B8FFF7FEBFFFF7FEBFA6
:10331000FFF7FEBFFFF7FEBFFFF7FEBFFFF7FEBFE1
:10332000FFF7FEBFFFF7FEBFFFF7FEBFFFF7FEBFD1
:10333000FFF7FEBFFFF7FEBFFFF7FEBFFFF7FEBFC1
:10334000FFF7FEBFFFF7FEBFFFF7FEBFFFF7FEBFB1
:10335000FFF7FEBFFFF7FEBFFFF7FEBFFFF7FEBFA1
:10336000FFF7FEBFFFF7FEBFFFF7FEBFFFF7FEBF91
:10337000FFF7FEBFFFF7FEBFFFF7FEBFFFF7FEBF81
:10338000FFF7FEBFFFF7FEBFFFF7FEBFFFF7FEBF71
:10339000FFF7FEBFFFF7FEBFFFF7FEBFFEF78EB9D8
:1033A000FEF791B9FEF794B9FFF7FEBFFFF7FEBF36
:1033B000FFF7FEBFFFF7FEBFFFF7FEBFFFF7FEBF41
:1033C000FFF7FEBFFFF7FEBFFFF7FEBFFFF7FEBF31
:1033D000FFF7FEBFFFF7FEBFFFF7FEBFFFF7FEBF21
:1033E000FFF7FEBFFFF7FEBFFFF7FEBFFFF7FEBF11
:1033F000FFF7FEBFFFF7FEBFFFF7FEBFFFF7FEBF01
:10340000FFF7FEBFFFF7FEBFFFF7FEBFFFF7FEBFF0
:10341000FFF7FEBFFFF7FEBFFFF7FEBFFFF7FEBFE0
:10342000FFF7FEBFFEF759B9FFF7FEBFFFF7FEBF7C
:10343000FFF7FEBFFFF7FEBFFFF7FEBFFFF7FEBFC0
:10344000FFF7FEBFFFF7FEBFFFF7FEBFFFF7FEBFB0
:1034500002040101F430002044310020F430002047
:10346000F4300020F43000203D0000202400002033
:10347000000000000000000000000000000000004C
:10348000000000000000000000000000000000003C
:1034900000000000010203040102030406070809FA
:0434A000007A030AA1
:04000005080032C9F4
:00000001FF
