:020000040800F2
:10000000308400209D010008E51400085D0F000801
:100010008B13000885020008A523000800000000DB
:10002000000000000000000000000000211D00088A
:10003000510600080000000075150008111E000898
:10004000B7010008B7010008B7010008B7010008B0
:10005000B7010008B7010008B7010008B7010008A0
:10006000B7010008B7010008B7010008B701000890
:10007000B7010008B7010008B7010008B701000880
:10008000B7010008B7010008B7010008B701000870
:10009000B7010008B7010008B7010008B701000860
:1000A000B7010008B7010008B7010008B701000850
:1000B000B7010008B7010008B7010008B701000840
:1000C000B7010008B7010008B7010008B701000830
:1000D000B7010008051F0008151F0008251F0008AC
:1000E000B7010008B7010008B7010008B701000810
:1000F000B7010008B7010008B7010008B701000800
:10010000B7010008B7010008B7010008B7010008EF
:10011000B7010008B7010008B7010008B7010008DF
:10012000B7010008B7010008B7010008B7010008CF
:10013000B7010008B7010008B7010008B7010008BF
:10014000B7010008B7010008B7010008B7010008AF
:10015000B7010008B7010008B70100084D1F0008EB
:10016000B7010008B7010008B7010008B70100088F
:10017000B7010008B7010008B7010008B70100087F
:10018000B7010008B7010008DFF80CD000F068F8EC
:1001900000480047DD5900083084002006488047A9
:1001A00006480047FEE7FEE7FEE7FEE7FEE7FEE75C
:1001B000FEE7FEE7FEE7FEE79D1E00088901000856
:1001C00040EA01039B0703D009E008C9121F08C0D9
:1001D000042AFAD203E011F8013B00F8013B521E59
:1001E000F9D27047D2B201E000F8012B491EFBD2D0
:1001F00070470022F6E710B513460A460446194632
:10020000FFF7F0FF204610BD30B50446002003463E
:1002100000E05B1C934203D2E05CCD5C401BF8D055
:1002200030BD034611F8012B00F8012B002AF9D14B
:100230001846704730B50B460146002020220124A5
:1002400009E021FA02F59D4205D303FA02F5491BA4
:1002500004FA02F52844151EA2F10102F1DC30BDBA
:10026000064C074D06E0E06840F0010394E8070003
:1002700098471034AC42F6D3FFF78AFFD0530108F9
:10028000F053010800BFFEE7014609B90B4870476B
:10029000012901D10A48FAE7022901D10948F6E704
:1002A000032901D10020F2E7042901D10020EEE763
:1002B000052901D10448EAE70020E8E7741100208D
:1002C0009C190020C4210020EC29002008B54FF41F
:1002D000E06001F045F925208DF8000000208DF840
:1002E000020001208DF80300684601F0FDF8262089
:1002F0008DF8000001208DF802008DF8030068469B
:1003000001F0F2F827208DF8000002208DF802009D
:1003100001208DF80300684601F0E6F847208DF8CB
:10032000000005208DF8020001208DF803006846CA
:1003300001F0DAF808BD000010B5ADF5825D0022CD
:1003400030A102A804F058FA04462CB12E4850F807
:1003500024102EA002F0AAFA32A003F05DFE04469B
:100360001CB932A002F0A2FA11E0082C06D12648EE
:1003700050F8241032A002F099FA08E0224850F810
:10038000241035A002F092FA0DF5825D10BD39A05F
:1003900003F042FE04461CB938A002F087FA0FE0D1
:1003A000082C06D1184850F8241039A002F07EFA23
:1003B00006E0154850F824103BA002F077FAE3E776
:1003C00040A003F029FE04461CB942A002F06EFAD8
:1003D0000FE0082C06D10C4850F8241043A002F07E
:1003E00065FA06E0084850F8241047A002F05EFACB
:1003F000CAE7002203A1104604F0FEF9044600BF3C
:10040000C2E70000303A000000000020B9D2D4D882
:10041000CEC4BCFECFB5CDB3CAA7B0DC20282573AF
:10042000290D0A002F44697231000000665F6D6B70
:100430006469722044697231204F6B0D0A0000001C
:100440004469723120C4BFC2BCD2D1BEADB4E6D4BF
:10045000DA282573290D0A00665F6D6B64697220C6
:100460004469723120CAA7B0DC20282573290D0AFF
:10047000000000002F44697232000000665F6D6B5F
:100480006469722044697232204F6B0D0A000000CB
:100490004469723220C4BFC2BCD2D1BEADB4E6D46E
:1004A000DA282573290D0A00665F6D6B6469722076
:1004B0004469723220CAA7B0DC20282573290D0AAE
:1004C000000000002F446972312F446972315F319E
:1004D00000000000665F6D6B6469722044697231D0
:1004E0005F3120B3C9B9A60D0A000000446972311A
:1004F0005F3120C4BFC2BCD2D1BEADB4E6D4DA20D5
:10050000282573290D0A0000665F6D6B64697220EF
:10051000446972315F3120CAA7B0DC2028257329D5
:100520000D0A000010B5ADF5035D00221EA141F2D9
:100530008800684404F060F904462CB11B4850F868
:1005400024101BA002F0B2F91FA10CA804F078FA45
:10055000044644B1154850F824101CA002F0A6F936
:100560000DF5035D10BD0A221EA118A804F06EF956
:1005700004460BAB22221EA118A804F04AFC044634
:100580001CB925A002F092F902E02AA002F08EF92F
:1005900018A803F05FFC002203A1104604F02CF918
:1005A000044600BFDCE70000303A000000000020F5
:1005B000B9D2D4D8CEC4BCFECFB5CDB3CAA7B0DCB7
:1005C00020282573290D0A00303A2F00B4F2BFAA63
:1005D000B8F9C4BFC2BCCAA7B0DC20282573290D56
:1005E0000A00000061726D666C792E7478740000E8
:1005F00046617446532057726974652044656D6F77
:10060000200D0A207777772E61726D666C792E63E4
:100610006F6D200D0A00000061726D666C792E749A
:10062000787420CEC4BCFED0B4C8EBB3C9B9A60D53
:100630000A00000061726D666C792E74787420CEA9
:10064000C4BCFED0B4C8EBCAA7B0DC0D0A000000E1
:100650007047000070B5ADF5845D002252A112A86C
:1006600004F0CAF804462CB1504850F8241050A0A9
:1006700002F01CF954A004F077FB04461CB954A006
:1006800002F014F90CE0042C04D14FA155A002F0A3
:100690000DF905E0454850F8241059A002F006F97C
:1006A00064A004F061FB04461CB966A002F0FEF8E9
:1006B0000EE0042C01D0052C04D15EA149A002F06B
:1006C000F5F805E0394850F8241066A002F0EEF87D
:1006D0003DA004F049FB04461CB93DA002F0E6F839
:1006E0000CE0042C04D138A13EA002F0DFF805E0B4
:1006F0002E4850F8241042A002F0D8F869A004F067
:1007000033FB04461CB969A002F0D0F80CE0042CBD
:1007100004D164A133A002F0C9F805E0234850F8E1
:10072000241068A002F0C2F873A004F01DFB044678
:100730001CB974A002F0BAF80CE0042C04D16EA12C
:1007400028A002F0B3F805E0184850F8241074A06F
:1007500002F0ACF800251CE02A467FA10EA802F0AA
:10076000B5F80EA804F000FB044624B90EA97EA03B
:1007700002F09CF80BE0042C04D10EA97FA002F03B
:1007800095F804E022460EA981A002F08FF8681CBB
:10079000C5B2142DE0DB002203A1104604F02CF8B2
:1007A00004460DF5845D70BD303A00000000002065
:1007B000B9D2D4D8CEC4BCFECFB5CDB3CAA7B0DCB5
:1007C00020282573290D0A002F446972310000008A
:1007D000C9BEB3FDC4BFC2BC44697231B3C9B9A6B6
:1007E0000D0A0000C3BBD3D0B7A2CFD6CEC4BCFE87
:1007F000BBF2C4BFC2BC203A25730D0A0000000042
:10080000C9BEB3FD44697231CAA7B0DC28B4EDCECD
:10081000F3B4FAC2EB203D2025732920CEC4BCFEE0
:10082000D6BBB6C1BBF2C4BFC2BCB7C7BFD50D0AE9
:10083000000000002F446972312F446972315F312A
:1008400000000000C9BEB3FDD7D3C4BFC2BC2F4453
:100850006972312F446972315F31B3C9B9A60D0A8B
:1008600000000000C9BEB3FDD7D3C4BFC2BC2F4433
:100870006972312F446972315F31CAA7B0DC28B484
:10088000EDCEF3B4FAC2EB203D2025732920CEC46F
:10089000BCFED6BBB6C1BBF2C4BFC2BCB7C7BFD5D6
:1008A0000D0A00002F44697232000000C9BEB3FD7A
:1008B000C4BFC2BC204469723220B3C9B9A60D0AB4
:1008C00000000000C9BEB3FD4469723220CAA7B05F
:1008D000DC28B4EDCEF3B4FAC2EB203D2025732919
:1008E00020CEC4BCFED6BBB6C1BBF2C4BFC2BCB72F
:1008F000C7BFD50D0A00000061726D666C792E7459
:1009000078740000C9BEB3FDCEC4BCFE2061726D18
:10091000666C792E74787420B3C9B9A60D0A0000EC
:10092000C9BEB3FD61726D666C792E747874CAA706
:10093000B0DC28B4EDCEF3B4FAC2EB203D20257331
:100940002920CEC4BCFED6BBB6C1BBF2C4BFC2BC5C
:10095000B7C7BFD50D0A00005370656564253032F6
:10096000642E747874000000C9BEB3FDCEC4BCFE12
:100970002573B3C9B9A60D0A00000000C3BBD3D0CC
:10098000B7A2CFD6CEC4BCFE3A25730D0A00000034
:10099000C9BEB3FD2573CEC4BCFECAA7B0DC28B463
:1009A000EDCEF3B4FAC2EB203D2025642920CEC45D
:1009B000BCFED6BBB6C1BBF2C4BFC2BCB7C7BFD5B5
:1009C0000D0A000008B500F0E9F86421012002F0EA
:1009D000F7FB78E002F024FA012002F079F910B177
:1009E000012002F09FFB6946002002F0DFFC002896
:1009F00048D035A001F05AFF9DF800003038092892
:100A00003CD2DFE800F0050B11171D23292F35001C
:100A10002EA001F04BFF00F0A5F932E031A001F06B
:100A200045FF01F0C1FC2CE034A001F03FFFFFF7CF
:100A300079FD26E037A001F039FF01F09BF820E0B6
:100A40003AA001F033FFFFF777FC1AE03CA001F079
:100A50002DFFFFF7FFFD14E03FA001F027FF01F09D
:100A60008FFD0EE041A001F021FF00F091FC08E0B5
:100A700045A001F01BFF00F011FF02E000F08EF82E
:100A800000BF00BF02F0A4F9182819D2DFE800F077
:100A9000190C0D180E0F1810111812181813181819
:100AA00014181815181816170CE00BE00AE009E0E6
:100AB00008E007E006E005E004E003E002E001E012
:100AC00000BF00BF00BF85E70D0A0000A1BE3020B7
:100AD0002D2046696C65466F726D6174A1BF0D0A69
:100AE00000000000A1BE31202D2056696577526FAD
:100AF0006F74446972A1BF0D0A000000A1BE3220CC
:100B00002D204372656174654E657746696C65A1F9
:100B1000BF0D0A00A1BE33202D20526561644669D5
:100B20006C6544617461A1BF0D0A0000A1BE342050
:100B30002D20437265617465446972A1BF0D0A007E
:100B4000A1BE35202D2044656C65746544697246EC
:100B5000696C65A1BF0D0A00A1BE36202D20546529
:100B600073745370656564A1BF0D0A00A1BE372080
:100B70002D204D6F6469667946696C6554657374A0
:100B8000A1BF0D0A00000000A1BE38202D20526533
:100B90006164446972A1BF0D0A00000010B512A083
:100BA00001F084FE1EA001F081FE28A001F07EFE6F
:100BB0002BA001F07BFE33A001F078FE39A001F0FC
:100BC00075FE40A001F072FE46A001F06FFE49A044
:100BD00001F06CFE4DA001F069FE52A001F066FE2E
:100BE00056A001F063FE10BD0D0A2D2D2D2D2D2DCB
:100BF0002D2D2D2D2D2D2D2D2D2D2D2D2D2D2D2D25
:100C00002D2D2D2D2D2D2D2D2D2D2D2D2D2D2D2D14
:100C10002D2D2D2D2D2D2D2D2D2D0D0A00000000FB
:100C2000B5DAD2BBB4CECAB9D3C3C7EBD1A1D4F124
:100C3000C3FCC1EE30BDF8D0D053504920466C61A2
:100C40007368B8F1CABDBBAF0D0A0000C7EBD1A1F4
:100C5000D4F1B2D9D7F7C3FCC1EE3A0D0A000000B7
:100C600030202D20B6D45350495F466C617368BD67
:100C7000F8D0D0CEC4BCFECFB5CDB3B8F1CABDBBA1
:100C8000AF0D0A0031202D20CFD4CABEB8F9C4BFA1
:100C9000C2BCCFC2B5C4CEC4BCFEC1D0B1ED0D0A3A
:100CA0000000000032202D20B4B4BDA8D2BBB8F69D
:100CB000D0C2CEC4BCFE61726D666C792E7478743D
:100CC0000D0A000033202D20B6C161726D666C796B
:100CD0002E747874CEC4BCFEB5C4C4DAC8DD0D0A67
:100CE0000000000034202D20B4B4BDA8C4BFC2BC95
:100CF0000D0A000035202D20C9BEB3FDCEC4BCFEB8
:100D0000BACDC4BFC2BC0D0A0000000036202D20A1
:100D1000B6C1D0B4CEC4BCFECBD9B6C8B2E2CAD438
:100D20000D0A000037202D20CEC4BCFEC4DAC8DD79
:100D3000D0DEB8C4B2E2CAD40D0A000038202D209B
:100D4000B1E9C0FAB5B1C7B0C2B7BEB6CBF9D3D01E
:100D5000CEC4BCFEBACDC4BFC2BCB2E2CAD40D0A76
:100D60000000000010B5ADF5015D002221A141F2A7
:100D70000800684403F040FD044634B11E4850F8B2
:100D800024101EA001F092FD05E01B4850F824102D
:100D900020A001F08BFD4FF4805002AB0022072110
:100DA000009014A003F0BAF9044634B1124850F888
:100DB00024101EA001F07AFD05E00F4850F8241021
:100DC0001FA001F073FD00220AA1104603F014FDDC
:100DD000044634B1084850F824101EA001F066FD06
:100DE00005E0054850F8241020A001F05FFD0DF546
:100DF000015D10BD303A000000000020B9D2D4D807
:100E0000CEC4BCFECFB5CDB3CAA7B0DC20282573B5
:100E1000290D0A00B9D2D4D8CEC4BCFECFB5CDB30B
:100E2000B3C9B9A620282573290D0A00B8F1CABD97
:100E3000BBAFCAA7B0DC20282573290D0A0000002B
:100E4000B8F1CABDBBAFB3C9B9A620282573290D17
:100E50000A000000D0B6D4D8CEC4BCFECFB5CDB306
:100E6000CAA7B0DC20282573290D0A00D0B6D4D833
:100E7000CEC4BCFECFB5CDB3B3C9B9A62028257367
:100E8000290D0A00F0B50A4600210023002400BF06
:100E90003DE0012505FA01F3156805EA03049C42CB
:100EA00034D105684F000326BE40B543056015796F
:100EB0004E00B5400668354305601579012D02D016
:100EC0001579022D16D185684F000326BE40B54323
:100ED000856055794E00B540866835438560456824
:100EE00001268E40B5434560456896798E40B6B27E
:100EF00035434560C5684F000326BE40B543C56015
:100F0000D5794E00B540C6683543C560491C1029E7
:100F1000BFD3F0BDF0B5002300244D07ED0E02FA5B
:100F200005F3CE1000F1200555F826504E07F70EB8
:100F30000F26BE40B543CF1000F1200646F82750DB
:100F4000CE1000F1200555F8265045EA0304CE10D6
:100F500000F1200545F82640F0BD000009A1002061
:100F60000BE00A5C124B9A8000BF114A128802F013
:100F70004002002AF9D0421CD0B22A28F1D300BF87
:100F8000FEE700000D0A456E7465722048617264C8
:100F90004661756C745F48616E646C65722C205399
:100FA000797374656D2048616C742E0D0A00000021
:100FB0000010014000B587B00121084600F0CAFBCF
:100FC0000121102000F0E6FB07220921AB48FFF7C2
:100FD000A1FF07220A21A948FFF79CFF00208DF8F6
:100FE0001A0001208DF81B0002208DF81800000265
:100FF000059002208DF8190005A9A048FFF742FFCF
:1010000002208DF818004002059005A99B48FFF7C3
:1010100039FF4FF4E13001900020ADF80800ADF841
:101020000A00ADF80C00ADF810000C20ADF80E0071
:1010300001A9934800F0F6FF012240F225519048A3
:1010400000F0CBFF01218E4800F091FF40218C4839
:1010500000F084FF0121084600F07CFB01214804D8
:1010600000F088FB072203218448FFF753FF00208C
:101070008DF81A0001208DF81B0002208DF8180051
:101080008DF818000820059002208DF8190005A998
:101090007A48FFF7F7FE4FF4165001900020ADF8A4
:1010A0000800ADF80A00ADF80C00ADF810000420FF
:1010B000ADF80E0001A9734800F0B4FF012240F220
:1010C0002551704800F089FF01216E4800F04FFF64
:1010D00040216C4800F042FF0121022000F03AFB61
:1010E00001208DF8180000208DF81A008DF81B00E3
:1010F00003208DF819000420059005A96248FFF728
:10110000C1FE0121022000F025FB0121880400F02E
:1011100031FB07220A215C48FFF7FCFE07220B2166
:101120005948FFF7F7FE00208DF81A0001208DF8CE
:101130001B0002208DF818004002059002208DF857
:10114000190005A95048FFF79DFE02208DF81800F0
:101150008002059005A94C48FFF794FE4FF4165005
:1011600001900020ADF80800ADF80A00ADF80C00C1
:10117000ADF810000C20ADF80E0001A9434800F0B6
:1011800051FF012240F22551404800F026FF012185
:101190003E4800F0ECFE40213C4800F0DFFE01211B
:1011A000442000F0D7FA0121202000F0F3FA0822B1
:1011B0000E213748FFF7AEFE082207213548FFF71A
:1011C000A9FE082211463248FFF7A4FE08220F218B
:1011D0002F48FFF79FFE00208DF81A0001208DF8A0
:1011E0001B0002208DF818004003059002208DF8A6
:1011F000190005A92648FFF745FE02208DF81800C2
:101200008020059005A92348FFF73CFE02208DF8B9
:101210001800C001059005A91D48FFF733FE022004
:101220008DF818008003059005A91948FFF72AFEDC
:101230004FF4E13001900020ADF80800ADF80A004D
:10124000ADF80C004FF44070ADF810000C20ADF874
:101250000E0001A9104800F0E5FE012240F22551E0
:101260000D4800F0BAFE01210B4800F080FE40213D
:10127000094800F073FE07B000BD00000000024006
:1012800000100140004400400004024000480040BB
:1012900000180240000802400014014004480069A0
:1012A00000F4807008B9012070470020FCE70000BE
:1012B0000020024010B5FFF7F1FF20B100F006F862
:1012C00008B1012010BD0020FCE7000004480068C0
:1012D00000F4005008B9012070470020FCE700002E
:1012E000100802400448006900F4006008B90120B9
:1012F00070470020FCE7000000200240044800681E
:1013000000F0040008B9012070470020FCE700004D
:10131000101C02400448006800F0080008B90120D1
:1013200070470020FCE70000101C024004480068E1
:1013300000F4006008B9012070470020FCE70000BD
:10134000101402400448006800F0800008B9012031
:1013500070470020FCE700001018024004480068B5
:1013600000F4004008B9012070470020FCE70000AD
:10137000101C024010B5FFF791FF20B1FFF7A6FF48
:1013800008B1012010BD0020FCE700BFFEE700000F
:1013900010B5ADF5035D002226A141F28800684436
:1013A00003F02AFA04462CB1234850F8241023A055
:1013B00001F07CFA27A10CA803F042FB044644B1DB
:1013C0001D4850F8241024A001F070FA0DF5035DBB
:1013D00010BD132226A118A803F038FA04461CB148
:1013E00026A001F063FAF1E72C480078401C2B4955
:1013F0000870084602782AA107A801F067FA0BAB2B
:10140000092207A918A803F004FD04461CB927A067
:1014100001F04CFA02E02CA001F048FA18A802F002
:1014200019FD002203A1104603F0E6F9044600BFAF
:10143000CCE70000303A000000000020B9D2D4D838
:10144000CEC4BCFECFB5CDB3CAA7B0DC202825736F
:10145000290D0A002F000000B4F2BFAAB8F9C4BFDA
:10146000C2BCCAA7B0DC20282573290D0A000000E1
:1014700061726D666C792E7478740000446F6E270B
:10148000742046696E642046696C65203A2061725A
:101490006D666C792E7478740D0A0000510000207E
:1014A000BAC3BAC3D1A7CFB02564000061726D661C
:1014B0006C792E74787420CEC4BCFED0B4C8EBB363
:1014C000C9B9A60D0A00000061726D666C792E74B0
:1014D000787420CEC4BCFED0B4C8EBCAA7B0DC0D73
:1014E0000A0000007047000070B5002100230F22A1
:1014F000C4781CB3174C246804F4E064C4F5E064B9
:10150000C4F30721C1F10404E3B20A4144789C40CA
:10151000E1B28478144021430C07210E0E4C05786B
:101520006155047804F01F050124AC4005786D1165
:10153000AD0005F1E025C5F8004109E0047804F0AC
:101540001F050124AC40054D0678761145F826406C
:1015500070BD00000CED00E000E400E080E100E080
:1015600002490143024A1160704700000000FA0579
:101570000CED00E07047000010B517A001F096F9DF
:1015800016A001F093F925A12BA001F08FF92FA14E
:101590002FA001F08BF933A135A001F087F90023CA
:1015A0000322012137A001F081F944A001F07EF966
:1015B00044A001F07BF949A001F078F94CA001F0BA
:1015C00075F952A001F072F958A001F06FF903A06B
:1015D00001F06CF910BD00000A0D00002A2A2A2A29
:1015E0002A2A2A2A2A2A2A2A2A2A2A2A2A2A2A2A5B
:1015F0002A2A2A2A2A2A2A2A2A2A2A2A2A2A2A2A4B
:101600002A2A2A2A2A2A2A2A2A2A2A2A2A2A2A2A3A
:101610002A2A2A2A2A2A2A2A2A0A0D0056352D3150
:1016200030325FB4AED0D0466C617368B6C1D0B40E
:10163000C0FDB3CC000000002A20C0FDB3CCC3FB2A
:10164000B3C62020203A2025730D0A00312E320027
:101650002A20C0FDB3CCB0E6B1BE2020203A202520
:10166000730D0A00323031342D30322D3238000003
:101670002A20B7A2B2BCC8D5C6DA2020203A20253D
:10168000730D0A002A20B9CCBCFEBFE2B0E6B1BEA1
:10169000203A205625642E25642E25642028535494
:1016A0004D3332463478785F537464506572697094
:1016B000685F447269766572290D0A002A200A0D56
:1016C000000000002A205151202020203A203132F1
:1016D0003935373434363330200D0A002A20CDFA1C
:1016E000CDFA20203A2061726D666C790D0A0000F7
:1016F0002A20456D61696C203A2061726D666C79B3
:101700004071712E636F6D200D0A00002A20CCD429
:10171000B1A6B5EA3A2061726D666C792E74616F7C
:1017200062616F2E636F6D0D0A0000002A20436F07
:1017300070797269676874207777772E61726D6649
:101740006C792E636F6D20B0B2B8BBC0B3B5E7D76C
:10175000D30D0A0029B1064A12680243044B1A60ED
:1017600004E0034A12688243014B1A60704700008C
:101770003038024029B1064A12680243044B1A600D
:1017800004E0034A12688243014B1A60704700006C
:101790004038024029B1064A12680243044B1A60DD
:1017A00004E0034A12688243014B1A60704700004C
:1017B00044380240F0B50021002200240225002612
:1017C0000223324F3F6807F00C0121B1042905D0F4
:1017D000082937D105E02E4F076036E02D4F07600E
:1017E00033E02A4F3F1F3F68C7F38056274F3F1F04
:1017F0003F6807F03F036EB1264FB7FBF3F7DFF802
:101800008CC0ACF1040CDCF800C0CCF3881C07FBE6
:101810000CF40CE01E4FB7FBF3F7DFF870C0ACF12F
:10182000040CDCF800C0CCF3881C07FB0CF4174F49
:101830003F1F3F68C7F301477F1C7D00B4FBF5F7EE
:10184000076002E0124F076000BF00BF0F4F3F6804
:1018500007F0F0010909104F7A5C0768D74047602C
:101860000A4F3F6807F4E051890A0B4F7A5C4768DA
:10187000D7408760054F3F6807F46041490B064F2A
:101880007A5C4768D740C760F0BD00000838024066
:101890000024F40000127A006200002070B5ADF55B
:1018A0000A5D002257A141F24820684402F0A4FFDB
:1018B000044614B154A000F0F9FF58A141F21820D9
:1018C000684403F0BDF8044644B1574850F824106A
:1018D00056A000F0EBFF0DF50A5D70BD58A002F0B8
:1018E0009BFB04462CB1504850F8241059A000F03E
:1018F000DDFF00251FE020212DA8FEF77AFC2A46F7
:1019000059A12DA800F0E2FF13222DA936A802F05C
:101910009DFF044624B12DA959A000F0C7FFDAE7C6
:1019200036A802F097FA04461CB15BA000F0BEFF97
:10193000D1E7681CC5B20A2DDDDB21E00DF5885129
:1019400001F58C7003F099F9044624B90DF5805027
:1019500090F8160100B914E00DF5805090F80801D8
:1019600000F0100030B141F2161169444EA000F0B1
:101970009DFF05E041F2161169444EA000F096FF6C
:10198000DCE700BF03224EA136A802F05FFF044649
:1019900014B151A000F08AFF35AB0C2252A136A839
:1019A00003F037FA04461CB953A000F07FFF02E0B1
:1019B00058A000F07BFF002136A802F05CFA044634
:1019C0001CB15BA000F072FF85E735AB7C220DA94E
:1019D00036A803F06BF80446359838B100200DA9FD
:1019E000359A885456A000F061FF02E05AA000F03A
:1019F0005DFF00225EA1104602F0FEFE044600BF1D
:101A000069E7000030000000B9D2D4D8CEC4BCFED3
:101A1000CFB5CDB3CAA7B0DC0A000000303A2F44DE
:101A20006972496D6167650000000020B4F2BFAAC9
:101A3000C2B7BEB6CAA7B0DC20282573290D0A009C
:101A4000303A2F446972496D6167652F4469725459
:101A500065737400B4B4BDA8C2B7BEB6CAA7B0DC83
:101A600020282573290D0A00303A2F446972496DE8
:101A70006167652F7465737425642E747874000033
:101A8000446F6E27742046696E642046696C652039
:101A90003A2025730D0A0000B9D8B1D5CEC4BCFEDA
:101AA000CAA7B0DC0A000000C4BFC2BCA3BA257339
:101AB0000D0A0000CEC4BCFEA3BA25730D0A0000B7
:101AC000303A2F446972496D6167652F746573748C
:101AD000312E747874000000B4F2BFAACEC4BCFEEC
:101AE000CAA7B0DC720A0000777269746520746559
:101AF00073740D0A0000000074657374312E7478DD
:101B00007420CEC4BCFED0B4C8EBB3C9B9A60D0ACC
:101B10000000000074657374312E74787420CEC494
:101B2000BCFED0B4C8EBCAA7B0DC0D0A00000000B0
:101B3000665F6C7365656B206572720D0A0000004C
:101B400074657374312E74787420CEC4BCFEC4DA0C
:101B5000C8DD203A2025730074657374312E7478C3
:101B60007420CEC4BCFEC4DAC8DD203A200D0A00C1
:101B7000303A000010B5ADF5055D002223A141F219
:101B80000810684402F038FE04462CB1204850F892
:101B9000241020A000F08AFE24A12CA802F050FFFF
:101BA000044644B11A4850F8241021A000F07EFEEB
:101BB0000DF5055D10BD012223A138A802F046FEF7
:101BC00004461CB123A000F071FEF1E72BAB7F228D
:101BD0000BA938A802F06AFF04462B9838B1002000
:101BE0000BA92B9A885423A000F060FE02E029A0E4
:101BF00000F05CFE38A802F02DF9002203A1104687
:101C000002F0FAFD044600BFD2E70000303A0000BF
:101C100000000020B9D2D4D8CEC4BCFECFB5CDB31D
:101C2000CAA7B0DC282573290D0A00002F00000088
:101C3000B4F2BFAAB8F9C4BFC2BCCAA7B0DC282599
:101C400073290D0A0000000061726D666C792E74B4
:101C500078740000446F6E27742046696E642046D5
:101C6000696C65203A2061726D666C792E747874A7
:101C70000D0A00000D0A61726D666C792E7478741D
:101C800020CEC4BCFEC4DAC8DD203A200D0A25737C
:101C90000D0A00000D0A61726D666C792E747874FD
:101CA00020CEC4BCFEC4DAC8DD203A200D0A0000F4
:101CB00021B1028842F04002028004E002884FF61F
:101CC000BF731A40028070470246002013890B4000
:101CD0000BB1012000E00020704701468889704761
:101CE0008181704710B50022028802F441520B88AE
:101CF0004C8823438C882343CC8823430C8923437B
:101D00004C8923438C892343CC8923431A43028083
:101D1000838B4FF2FF74234083830B8A038210BDB1
:101D2000704700000CB50020019000903448006816
:101D300040F480303249086000BF3148006800F448
:101D4000003000900198401C0190009818B901984B
:101D5000B0F5A04FF1D12A48006800F4003010B16E
:101D60000120009001E0002000900098012846D159
:101D700023484030006840F08050214940310860DD
:101D80002048006840F440401E4908601C48083064
:101D900000681B49083108600846006840F40040AC
:101DA00008600846006840F4A05008601648091F03
:101DB0000860081F006840F08070091F086000BFBD
:101DC0000F48006800F000700028F9D040F205705C
:101DD0000E4908600A480830006820F003000849EE
:101DE000083108600846006840F00200086000BF43
:101DF00003480830006800F00C000828F8D10CBD3A
:101E0000003802400070004019544007003C024076
:101E100010B500F001F810BD10B51B48006840B1C6
:101E200019480068401E1849086010B90120174978
:101E30000870002408E004EB4401154A02EB81001D
:101E400001F0AFF9601CC4B2042CF4DB1148006847
:101E5000401C10490860084600686FF00041884245
:101E600002D100200B49086001F09AF90A48007875
:101E7000401CC0B2084908700A2803DB0020087023
:101E800001F08AF910BD0000540000205800002025
:101E9000441100205C0000206000002010B51548AF
:101EA000006840F47000134908601348006840F06F
:101EB00001001149086000200F49083108600E48F0
:101EC00000680E4908400C4908600D48091D08606B
:101ED000081F006820F48020091F086000200649C0
:101EE0000C310860FFF71EFF4FF000600149803998
:101EF000086010BD88ED00E000380240FFFFF6FEEC
:101F00001030002410B5024800F024F910BD000084
:101F10007411002010B5024800F01CF910BD00003B
:101F20009C19002010B5024800F014F910BD000003
:101F3000C421002004200149088070471804024091
:101F400004200149088070471A04024010B5024875
:101F500000F000F910BD0000EC29002001F400722F
:101F6000B2F5007F00D100BFCA430280704721B1A3
:101F7000828942F40052828104E082894DF6FF7327
:101F80001A408281704770B5024600240023002564
:101F9000002040F66A16B14200D100BFC1F34215DD
:101FA00001F01F03012606FA03F3012D02D19689E1
:101FB000334006E0022D02D1168A334001E0968AB2
:101FC00033400C12012606FA04F41688344013B18B
:101FD0000CB1012000E0002070BDF0B503460024E4
:101FE00000260025002040F66A17B94200D100BF44
:101FF0001846C1F3421401F01F06012707FA06F53F
:10200000012C01D10C3004E0022C01D1103000E091
:1020100014301AB107682F43076002E00768AF4326
:102020000760F0BD2DE9FF4705460E460024A14696
:1020300000BFA046B08900B100BF2C8A24F44054F0
:10204000F08804432C82AC8941F20C608443B08850
:1020500031890843718908430443AC81AC8A24F474
:102060004074B0890443AC826846FFF7A3FB204864
:10207000854202D01F48854202D1DDF80C9001E074
:10208000DDF80890A88900F4004040B109EBC900D0
:1020900000EB091031684900B0FBF1F707E009EBEC
:1020A000C90000EB091031688900B0FBF1F764202A
:1020B000B7FBF0F004012009642101FB1078A88926
:1020C00000F4004040B1322000EBC800B0FBF1F05A
:1020D00000F00700044308E0322000EB0810642100
:1020E000B0FBF1F000F00F0004432C81BDE8FF8746
:1020F000001001400014014001468888C0F3080028
:102100007047C1F308028280704770B504460D46DF
:10211000012000F001FC668B002000F0FDFB0EB9F1
:10212000002070BD218BA068405C2870012000F069
:10213000F3FB208B401C80B22083E189884201DBC5
:1021400000202083608B401E6083002000F0E4FBB1
:102150000120E6E710B5044640F225512068FFF75C
:1021600012FFE0B12068FFF7C7FFE28AA168885438
:10217000E08A401C80B2E082E189884201DB0020D5
:10218000E082608BE189884202DA608B401C6083C8
:10219000608B012803D1606A08B1606A804740F211
:1021A00027712068FFF7EFFE08B3A08A60B900220C
:1021B00040F227712068FFF710FF012240F22661EC
:1021C0002068FFF70AFF37E0638A6268D15C206805
:1021D000FFF797FF608A401C80B26082A189884225
:1021E00001DB00206082A08A401EA08224E040F231
:1021F00026612068FFF7C7FEF0B1A08A50B900221F
:1022000040F226612068FFF7E8FE206AA0B1206A4C
:10221000804711E0638A6268D15C2068FFF771FF34
:10222000608A401C80B26082A189884201DB002064
:102230006082A08A401EA08210BD2DE9F0410446B4
:102240000E461746002527E00CE0012000F064FB55
:10225000B4F81480002000F05FFBA089404500DD49
:1022600001E000BFF1E700BF705D228A6168885419
:10227000012000F051FB208A401C80B22082A189FD
:10228000884201DB00202082A08A401CA08200201E
:1022900000F042FB681C85B2BD42D5DB012240F252
:1022A00027712068FFF799FEBDE8F0812B482C4983
:1022B00008602C4848602C4888604FF48060888112
:1022C000C881002008824882C882088348838882A7
:1022D000C861086248622548254908602548486069
:1022E0002548886001208881C002C88100200882BA
:1022F0004882C882088348838882C861086248622D
:102300001E481F4908601F4848601F4888604FF4F6
:1023100080608881C881002008824882C882088342
:10232000488388821948C8611948086200204862B9
:1023300018481949086019484860194888604FF4DE
:1023400080608881C881002008824882C882088312
:1023500048838882C8610862486270470010014063
:10236000741100209C1100209C15002000440040A6
:102370009C19002061000020C41900200048004082
:10238000C4210020EC210020EC250020351F00088E
:10239000411F000800140140EC290020142A0020ED
:1023A000142E002000BFFEE730B5E1B0ADF5805D32
:1023B0000025002237A153A802F01EFA044634B1CA
:1023C000354850F8241035A000F070FA05E0324886
:1023D00050F8241037A000F069FA3CA147A802F099
:1023E0002FFB04464CB12C4850F8241038A000F0C4
:1023F0005DFA61B00DF5805D30BD3BA000F056FA8E
:10240000002500BF01A947A802F037FC044614B913
:102410009DF81A0000B925E09DF81A002E2800D179
:102420001EE09DF80C0000F0100028B19DF80C1083
:1024300039A000F03BFA04E09DF80C103AA000F03F
:1024400035FA3DA0019900F031FA0DF11A013CA0D6
:1024500000F02CFA0DF10D013BA000F027FA00BFAF
:102460006D1CCFE700BF00220AA1104602F0C4F99C
:10247000044634B1084850F8241035A000F016FA8C
:1024800005E0054850F8241037A000F00FFA00BF0F
:10249000AFE70000303A000000000020B9D2D4D8E5
:1024A000CEC4BCFECFB5CDB3CAA7B0DC20282573FF
:1024B000290D0A00B9D2D4D8CEC4BCFECFB5CDB355
:1024C000B3C9B9A620282573290D0A00303A2F0078
:1024D000B4F2BFAAB8F9C4BFC2BCCAA7B0DC2028F6
:1024E0002573290D0A000000CAF4D0D42020202032
:1024F000202020207C2020CEC4BCFEB4F3D0A1201C
:102500007C20B6CCCEC4BCFEC3FB207C20B3A4CEC2
:10251000C4BCFEC3FB0D0A00283078253032642984
:10252000C4BFC2BC20200000283078253032642986
:10253000CEC4BCFE20200000202531306400000005
:1025400020202573207C0000202025730D0A000028
:10255000D0B6D4D8CEC4BCFECFB5CDB3CAA7B0DCFC
:1025600020282573290D0A00D0B6D4D8CEC4BCFECD
:10257000CFB5CDB3B3C9B9A620282573290D0A005C
:102580002DE9F05FADF5035D4FF0000A002405E092
:10259000302000EB542070490855641CB4F5805F6E
:1025A000F6D300226DA141F28800684402F024F9BC
:1025B00005462DB16A4850F825106AA000F076F95A
:1025C0006EA10CA802F03CFA05464DB1644850F8E3
:1025D00025106BA000F06AF90DF5035DBDE8F09FD2
:1025E0006D4802780078401C6B4B18706BA107A8EF
:1025F00000F06CF90A2207A918A802F027F905468D
:102600004FF4006207A969A000F050F900F0FAFB4E
:102610008046002418E00BAB4FF480524E4918A8B6
:1026200002F0F7FB05463DB9601C00F0070050B909
:1026300064A000F03BF906E04FF0010A07A962A090
:1026400000F034F903E0641CB4F5007FE3D300BF6D
:1026500000F0D8FB8146BAF1000F0FD1A9EB0806B4
:102660004FF4FA10B0FBF6FB8002B0FBF6F15B46CC
:102670000A460691314658A000F018F918A801F052
:10268000E9FB012207A918A802F0E0F8054625B1E8
:1026900007A95EA000F00AF99EE74FF4006160A070
:1026A00000F004F900F0AEFB804600242EE00BABF6
:1026B0004FF48052284918A802F0F8F90546F5B9F8
:1026C000601C00F0070010B93EA000F0EFF80027F2
:1026D0000DE02148C05D302101EB5721884205D033
:1026E0004FF0010A54A000F0E1F803E07F1CB7F5B9
:1026F000805FEED300BFBAF1010F06D109E04FF0C1
:10270000010A57A000F0D2F803E0641CB4F5007F82
:10271000CDD300BF00F076FB8146BAF1000F0FD198
:10272000A9EB08064FF4FA10B0FBF6FB8002B0FBF1
:10273000F6F15B460A46069131464FA000F0B6F826
:1027400018A801F087FB002204A1104602F054F8FB
:10275000054600BF40E7000094000020303A00002A
:1027600000000020B9D2D4D8CEC4BCFECFB5CDB3C2
:10277000CAA7B0DC20282573290D0A002F0000000D
:10278000B4F2BFAAB8F9C4BFC2BCCAA7B0DC202843
:102790002573290D0A000000500000205370656564
:1027A00064253032642E747874000000BFAACABC5D
:1027B000D0B4CEC4BCFE25732025644B42202E2EFF
:1027C0002E0D0A002E0000002573CEC4BCFED0B42E
:1027D000CAA7B0DC0D0A00000D0A2020D0B4BAC48C
:1027E000CAB1203A2025646D73202020C6BDBEF9F1
:1027F000D0B4CBD9B6C8203A202564422F53202824
:1028000025644B422F53290D0A000000C3BBD3D0CF
:10281000D5D2B5BDCEC4BCFE3A2025730D0A00004A
:10282000BFAACABCB6C1CEC4BCFE2025644B4220A0
:102830002E2E2E0D0A0000005370656564312E7433
:10284000787420CEC4BCFEB6C1B3C9B9A6A3ACB5DA
:10285000ABCAC7CAFDBEDDB3F6B4ED0D0A00000079
:102860005370656564312E74787420CEC4BCFEB696
:10287000C1CAA7B0DC0D0A000D0A2020B6C1BAC437
:10288000CAB1203A2025646D73202020C6BDBEF950
:10289000B6C1CBD9B6C8203A202564422F53202890
:1028A00025644B422F53290D0A0000000FB4054B3D
:1028B00010B503A9044A029800F032F810BC5DF884
:1028C00014FB0000BD550008900000200FB4084B19
:1028D00010B504A902AA039800F022F8044602A940
:1028E000002000F0BEF9204610BC5DF814FB00008B
:1028F000632C000802E008C8121F08C1002AFAD1A0
:1029000070477047002001E001C1121F002AFBD16F
:10291000704780F31088704780F31088704700007C
:102920002DE9FF4F8BB088460546002606E0252896
:102930000BD0DDE90D1290476D1C761C287800281D
:10294000F5D10FB03046BDE8F08F0024A146A24675
:102950000122AE4900E0044315F8013F203B02FA92
:1029600003F00842F7D128782A2810D06FF02F0200
:102970002878A0F13001092915D809EB890102EB6B
:10298000410144F0020400EB01096D1CF0E758F826
:10299000041B5FEA010903D544F40054C9F100099E
:1029A00044F002046D1C28782E2817D115F8010F69
:1029B00044F004042A280ED06FF02F022878A0F1EA
:1029C000300109290AD80AEB8A0102EB410100EB28
:1029D000010A6D1CF2E758F804AB6D1C28786C28CE
:1029E0000FD006DC4C2817D068280DD06A2814D1E7
:1029F00004E0742810D07A280FD10DE044F40014BC
:102A00000AE044F4801401E044F4401469788142FF
:102A100002D104F580146D1C6D1C2878692865D0DE
:102A200006DC00288DD0632827D0642806D15DE01D
:102A30006E2808D073282AD0752877D0DDE90D12CA
:102A40009047761CE0E0C4F30250022809D0032826
:102A50000DD0D8F8001004280DD00E6008F104083D
:102A6000D2E0D8F80010F217C1E90062F6E7D8F812
:102A700000100E80F2E70E70F0E718F8041B8DF8D6
:102A8000001000208DF80100EB46012003E058F80B
:102A900004BB4FF0FF3061074FF0000701D40AE09C
:102AA0007F1C57450DDA8742FADB1BF80710002917
:102AB000F6D106E07F1C8742FCDB1BF807100029DB
:102AC000F8D1DDE90D23A9EB07008146214600F08E
:102AD000B1F83044C61904E0DDE90D121BF8010B12
:102AE00090477F1EF8D22146484688E058F8040BEC
:102AF000C4F302514FF00A0B032900D100B204299C
:102B000000D140B2002802DA40422D2102E0210526
:102B100005D52B218DF82410012104E006E0E10702
:102B200010D02021F6E708AF089113E058F8040B05
:102B3000C4F302514FF00A0B032900D180B20429DB
:102B400000D1C0B20021EEE75946FDF773FB3031EA
:102B500007F8011D0028F7D1ADEB070000F1200BAD
:102B6000600702D524F4803401E04FF0010ADA4511
:102B700002DDAAEB0B0000E00020824600EB0B0117
:102B800008980144A9EB01000A90E00306D4DDE9AE
:102B90000D2321460A9800F04DF806444FF0000935
:102BA00008E009A911F80900DDE90D12904709F1C3
:102BB0000109761C08998945F3DBE0030CD5DDE9B2
:102BC0000D2321460A9800F035F8064404E0DDE9BB
:102BD0000D1230209047761CBAF10001AAF1010ACB
:102BE000F5DC05E0DDE90D1217F8010B9047761CC6
:102BF000BBF10001ABF1010BF4DC0A982146DDE9E1
:102C00000D2300F005F806446D1C97E60928010025
:102C10002DE9F041044600251E461746880404D4D9
:102C200005E039462020B0476D1C641EF9D52846C2
:102C3000BDE8F0812DE9F041044600251E4690468E
:102C4000C80301D5302700E02027880404D505E01B
:102C500041463846B0476D1C641EF9D52846BDE88C
:102C6000F0810A68531C0B601070704700B585B086
:102C700001218803FEF77EFD0020ADF800004FF42F
:102C80008270ADF802000020ADF804000220ADF81B
:102C900006000120ADF808004002ADF80A0000204F
:102CA000ADF80C00ADF80E000720ADF81000694635
:102CB0000648FFF717F800210448FEF7F9FF012145
:102CC0000248FEF7F5FF05B000BD000000380040E7
:102CD0000146042901DB0020704701EB4100084A4E
:102CE00002EB80004078012808D1002001EB41026E
:102CF000034B03EB820250700120EDE70020EBE76D
:102D00004411002070B50546304800EB05142068DA
:102D1000804700283ED02079052802DA052020715E
:102D200052E020790A2803DA2079401C20714BE018
:102D3000A07A38B90120A07205EB4501491CC8B240
:102D400000F01AFA208900283EDDE08821898842B7
:102D50000DDAE088401C80B2E0802189884233D1BE
:102D600005EB4501C91CC8B200F006FA2CE0E07A78
:102D7000002829DD207B401CC0B22073E17A884204
:102D800022DB0020207305EB4501491CC8B200F08E
:102D9000F3F919E02079052802DD0520207110E003
:102DA000207918B12079401E20710AE0A07A01280C
:102DB00007D10020A07205EB4501891CC8B200F0C4
:102DC000DBF90020E080207370BD0000941000202B
:102DD0000B48807A0A4AD27A904201D1002070478B
:102DE0000748807A064A115C1046807A401CC0B2BF
:102DF00090720A2801DB002090720846EFE700007D
:102E00003411002010B50120FFF783FD034804684A
:102E10000020FFF77EFD204610BD00005C00002072
:102E2000704710B500F06AF900F005F800F01AF9E3
:102E300000F0C2F810BD10B500F054F800F002F830
:102E400010BD00001CB501214FF4F270FEF782FCAA
:102E500000208DF804008DF806008DF80700022090
:102E60008DF80500C001009069461948FEF70AF880
:102E70004FF40050009069461648FEF703F84FF4EF
:102E80000060009069461248FDF7FCFF04200090A6
:102E900069461148FDF7F6FF0820009069460E4884
:102EA000FDF7F0FF4FF40060009069460B48FDF716
:102EB000E9FF8020009069460948FDF7E3FF4FF4E1
:102EC0000040009069460448FDF7DCFF1CBD00008F
:102ED0000020024000080240001C02400014024092
:102EE000001802400021284A9172D172117300200B
:102EF00018E06421254A02EB001211810221234AC5
:102F000002EB001211710021204A02EB00129172B3
:102F10001E4A02EB0012D1721C4A02EB001211731E
:102F2000411CC8B20A28E4DB642218490A8705223A
:102F300081F83B206422A1F84820052281F84B202B
:102F40006422A1F85820052281F85B206422A1F8B0
:102F50006820052281F86B200D490C4A11600D494B
:102F600011610D4911620D4911630D4911640D493B
:102F700011650D4911660D4911670D49C2F88010A0
:102F80000C49C2F8901070473411002094100020B2
:102F90009D120008CD120008E5120008FD1200087D
:102FA000151300082D130008451300085D130008D1
:102FB00075130008B51200081CB501210220FEF7A8
:102FC000C9FB05220D212648FDF7A4FF05220E218D
:102FD0002348FDF79FFF05220F212148FDF79AFFA7
:102FE00002208DF804008DF8050000208DF8060001
:102FF00002208DF807004FF46040009069461848A1
:10300000FDF740FF4FF4805015491831088001202A
:103010008DF8040000208DF8060002208DF80500D0
:1030200000208DF807008814009069460C48FDF7D1
:1030300029FFFFF71BFE03F0DBF84FF4805008492F
:103040001A310880042003F04DF94FF480500449F0
:103050001831088003F062F9002003F041FA1CBD2A
:103060000004024070B5002016E0002100EB400291
:103070001E4B03EB8202516000EB400203EB820225
:10308000916000EB400203EB8202517000EB4002C2
:1030900003F82210411CC8B20428E6DB1449096871
:1030A0004FF47A73B1FBF3F2511EB1F1807F00D37C
:1030B0001BE0511E4FF0E023596159170F230029DF
:1030C00007DA1C07260E0B4C01F00F052D1F665565
:1030D00003E01C07250E084C655400BF00214FF08B
:1030E000E02399610721196100BF70BD44110020E0
:1030F0007400002018ED00E000E400E010B5FFF7D8
:10310000D5F8FDF757FFFDF7E1F810BD10B5002425
:1031100004E02046FFF7F6FD601CC4B20A2CF8DB81
:1031200010BD0000012806D11049496981F4806171
:103130000E4A516119E0022806D10D49096881F053
:1031400080010B4A116010E0032806D10849096884
:1031500081F48071064A116007E0042805D1054911
:10316000096881F00401034A1160704700200240A1
:1031700014140240140802400649C97A054A505402
:103180001146C97A491CC9B2D1720A2901DB002152
:10319000D17270473411002010B5FFF7B7FF10BD92
:1031A0007047416851B14168491E416031B9012100
:1031B00041700178012901D18168416070470000A8
:1031C00070B504460D46042C06DB124A12A11DA060
:1031D000FFF76CFB00BFFEE70120FFF79AFB04EB53
:1031E0004400204901EB8000456004EB440001EB02
:1031F00080008560002004EB44011A4A02EB810143
:103200004870012004EB440102F821000020FFF780
:1032100080FB70BD296700082E2E5C2E2E5C557336
:1032200065725C6273705F73746D33326634787884
:103230005C7372635C6273705F74696D65722E6338
:10324000000000004572726F723A2066696C65205A
:1032500025732C2066756E6374696F6E2025732844
:10326000290D0A004411002070B504460D460020C7
:10327000E070401E60632946204602F0E0FB08B182
:10328000042070BD04F2362002F0A2FB4AF655215C
:10329000884201D00320F4E794F83800E92807D0E9
:1032A00094F83800EB2803D094F83800E82811D1BE
:1032B000032209A104F16E0002F099FB08B9002075
:1032C000DFE7052205A104F18A0002F090FB08B9AE
:1032D0000020D6E70220D4E746415400464154334B
:1032E00032000000024600E0521C107810B1107845
:1032F0008842F9D1107870470246891ED069801E35
:10330000884201D8002070475389106B03FB0100ED
:10331000F9E700002DE9F04780460C4604F11A0059
:1033200002F056FB10B10020BDE8F087207800F0D5
:103330003F00401E00EB800101EBC0054FF001098A
:10334000002621E01849895D081902F041FB074673
:10335000B9F1000F11D0FF2D0BD2384601F0D2FE8B
:10336000824629466D1C38F8110001F0CBFE8245DB
:1033700001D00020D8E7B94605E04FF6FF7087423C
:1033800001D00020D0E7761C0D2EDBD3207800F092
:10339000400038B1B9F1000F04D038F8150008B179
:1033A0000020C1E70120BFE74A67000870B5054665
:1033B0000E462846FCF768FF04460CB9002070BD95
:1033C00031462046FEF7A1FEF9E72DE9F04105461A
:1033D0000E4617462846FCF757FF04460CB9BDE8D1
:1033E000F081E06908B1E06980473A4631462046FD
:1033F000FEF723FF00BFF2E713B50446012201A93F
:103400002046FFF7E2FF1CBD2DE9F04782468846C3
:10341000DAF80040B8F1000F06D1676917B1E0692A
:10342000B84215D8012713E04146504602F036F95C
:103430000546022D02D20120BDE8F087681C08B9BC
:103440002846F9E7E069A84201D92846F4E747464B
:10345000A06908B90020EFE70026474518D17E1C77
:10346000E069B04200D802263146504602F016F913
:103470000546012D01D0681C08B92846DCE73DB19E
:103480006569022D03D3E069A84200D92F460026C2
:10349000E6B93E4600BF761CE069B04204D8022679
:1034A000BE4201D90020C7E73146504602F0F6F887
:1034B000054605B909E0012D01D0681C08B9284668
:1034C000BAE7BE42E7D10020B6E700BF4FF0FF32B7
:1034D0003146204602F012FB8146B9F1000F08D1B7
:1034E000B8F1000F05D032464146204602F006FBF7
:1034F0008146B9F1000F0DD16661D4E90610801E36
:10350000814202D8A069401EA061207940F00100EC
:10351000207107E0B9F1010F02D14FF0FF3000E058
:1035200001200646304687E72DE9F34F85B08146F6
:10353000069800680290D9F80000D0F810A0002585
:1035400000BF02A803F0A5F883460BF1010018B9EB
:10355000062007B0BDE8F08FBBF5803F05D34FEAEA
:103560001B4228466D1C2AF810201FFA8BF4202CD1
:1035700003DB2F2C01D05C2C00D111E0802C06DA6B
:10358000214679A0FFF7AEFE08B10620E1E7FF2D46
:1035900001D30620DDE728466D1C2AF81040D0E74D
:1035A00000BF02E00298401C0290029800782F2889
:1035B000F8D0029800785C28F4D00299069801604F
:1035C000202C01DA042000E00020064608E0681EF6
:1035D0003AF81040202C02D02E2C00D002E06D1EB4
:1035E000002DF4D100BF00202AF815000DB90620E7
:1035F000AFE7002700E07F1C3AF817002028FAD038
:103600001FB93AF817002E2801D146F0030600E052
:103610006D1E25B1681E3AF810002E28F8D10B2235
:10362000202109F1200002F001FA4FF00008CDF846
:1036300010800820039000BF38467F1C3AF81040E5
:1036400004B966E0202C03D02E2C04D1AF4202D066
:1036500046F00306F0E7DDE90310884201D2AF42ED
:1036600016D103980B2802D146F0030651E0AF4271
:1036700001D046F00306AF4200D94AE02F460820A9
:1036800004900B2003904FEA88604FEA1068D3E75C
:10369000802C0ADB46F00206204601F033FD4FF491
:1036A0006971019001F0F4FC0446FF2C11DD0398D0
:1036B000401E0499884204D846F0030603980490FB
:1036C000BAE722120498411C049109F120010A541E
:1036D00018E024B1214627A0FFF704FE18B15F24AB
:1036E00046F003060EE0412C03DB5A2C01DC48F0C7
:1036F0000208612C06DB7A2C04DC48F00108A4F1F6
:10370000200084B20498411C049109F120010C545A
:1037100092E700BF99F82000E52802D1052089F83A
:1037200020000398082803D14FEA88604FEA106808
:1037300008F00C000C2803D008F00300032801D186
:1037400046F0020606F0020048B908F0010008B190
:1037500046F0100608F0040008B146F008062B20D9
:1037600000F809600020F4E6222A3A3C3E3F7C7FC4
:10377000000000002B2C3B3D5B5D000001460B4828
:10378000007888420FDC09484078884201DB01203C
:10379000704706488078884205DC0448C078884233
:1037A00001DB0120F4E70020F2E700005767000882
:1037B000014610480079884219DC0E484079884259
:1037C00001DB012070470B488079884205DC0948FD
:1037D000C079884201DB0120F4E70648007A88427C
:1037E00005DC0448407A884201DB0120EAE700203A
:1037F000E8E70000576700082DE9F04104460E464F
:10380000D4F800800021204600F07BFA0546EDB98F
:10381000002700BF4046A16902F011F9054605B135
:1038200013E0E0690078E52802D0E069007820B96B
:10383000781C0746B04201D107E00027012120464D
:1038400000F0B8F80546002DE4D000BF042D00D1EB
:1038500007252846BDE8F0812DE9F0470446894652
:10386000204602F0F1FE10B10120BDE8F087494684
:103870002046FFF741FD064666634FF48052002163
:1038800004F1380002F0D2F804F1380801270025CD
:1038900000E03D446089A84207D9721960783B4630
:1038A000414600F0BCFA0028F3D06089A84201D05C
:1038B0000120DAE70020D8E72DE9F0470446D4F8E4
:1038C00000A00021204600F01CFA064616B1304642
:1038D000BDE8F0874FF0FF08C1464FF0FF30E062CF
:1038E00000BF5046A16902F0AAF8064606B15EE0A4
:1038F000E06905780DB9042659E0E069C07A00F066
:103900003F07A771E52D04D007F0080038B10F2F4D
:1039100005D04FF0FF084FF0FF30E06240E00F2F7E
:1039200022D12B20005D00F0400098BB05F0400044
:1039300038B1E06990F80D9005F0BF05A846206900
:10394000E06245450CD1E069407B484508D1E1691A
:10395000DAF81000FFF7DEFC10B1A8F1010000E07A
:10396000FF2000F0FF081BE0B8F1000F05D1E0696F
:1039700002F012FE484500D119E02B20005D00F056
:10398000010040B90B2204F12001E06902F02FF898
:1039900008B90CE004E04FF0FF084FF0FF30E062A0
:1039A0000021204600F006F80646002E99D000BF00
:1039B00030468DE72DE9F0410446884626682069A7
:1039C00000F12007B7F5001F01D30020A061A06916
:1039D00010B90420BDE8F081B089B7FBF0F100FB1D
:1039E0001170002847D1A069401CA061606938B9F6
:1039F0003089B0EB571F3ED80020A0610420E9E7D2
:103A0000B089B7FBF0F07189491E084098BB204689
:103A1000616901F043FE0546012D01D80220D9E776
:103A2000681C08B90120D5E7F069A8421DD8B8F193
:103A3000000F03D10020A0610420CBE7204661697C
:103A4000FFF7E2FC05460DB90720C3E7012D01D1C0
:103A50000220BFE7681C08B90120BBE729463046B1
:103A6000FFF7FAFE08B10120B4E765612946304648
:103A7000FFF742FCA0612761B089B7FBF0F100FBC2
:103A8000117106F138000844E0610020A2E72DE939
:103A9000F05F044689460426D4F800A04FF0FF08E2
:103AA000C34653E05046A16901F0C9FF064606B17E
:103AB0004FE0E06905780DB904264AE0E069C07A74
:103AC00000F03F07A771E52D0AD02E2D08D027F072
:103AD0002000082801D1012000E00020484502D044
:103AE0004FF0FF082BE00F2F1DD105F0400038B13B
:103AF000E06990F80DB005F0BF05A8462069E062C6
:103B000045450CD1E069407B584508D1E169DAF8B8
:103B1000100001F0AFFF10B1A8F1010000E0FF209C
:103B200000F0FF080BE0B8F1000F04D1E06902F0EB
:103B300033FD584502D04FF0FF30E06209E000212C
:103B40002046FFF737FF064606B102E0A0690028CD
:103B5000A8D100BF0EB10020A0613046BDE8F09FA3
:103B60002DE9FE4F044626682B20005D00F0A000E2
:103B700010B10620BDE8FE8F4FF0000901E009F109
:103B80000109306930F819000028F8D10C2204F13D
:103B90002001684601F03DFF9DF80B0000F0010098
:103BA00028B340212B2001554FF001080EE0434679
:103BB000694604F12000326901F00AFD2046FFF752
:103BC0007BFE054605B104E008F10108B8F1640F79
:103BD000EDD300BFB8F1640F01D10720CAE7042D6F
:103BE00001D02846C6E79DF80B102B2001559DF803
:103BF0000B0000F0020030B109F10C000D21B0FB08
:103C0000F1F0401C00E00120074639462046FFF74E
:103C1000F3FD05464DBB781E071E26D02069A0EB9C
:103C20004711204600F06DF80546F5B904F1200073
:103C300002F0B2FC824600BF3046A16901F0FFFEEF
:103C4000054605B110E0FAB2E1695346306902F069
:103C50001DF80120F07000212046FFF7ABFE05465D
:103C600015B9781E071EE7D100BFC5B93046A16956
:103C700001F0E5FE054695B920220021E06901F03A
:103C8000D5FE0B2204F12001E06901F0C2FE2B20D9
:103C9000005D00F01800E16908730120F07028460B
:103CA00068E72DE9F041044626682769E06A401C70
:103CB00008B9002003E02046E16A00F022F805463A
:103CC000E5B900BF3046A16901F0B9FE054605B16E
:103CD00010E000BFE520E16908700120F070206964
:103CE000B84200D306E000212046FFF763FE0546F8
:103CF000002DE7D000BF042D00D102252846BDE8E5
:103D0000F0812DE9F04104460E462568B6F5001F06
:103D100002D206F01F0010B10220BDE8F08126613A
:103D2000A7681FB92878032800DBEF6A47B92889FC
:103D3000B0EB561F01D80220EFE7E86AA0611DE052
:103D40006889A98900FB01F811E03946204601F095
:103D5000A5FC0746781C08B90120DEE7022F02D334
:103D6000E869B84201D80220D7E7A6EB0806464525
:103D7000EBD239462846FFF7BFFAA0616761A06918
:103D800008B90220C9E7A889B6FBF0F0A169084488
:103D9000A061A889B6FBF0F100FB116105F13800C4
:103DA0000844E0610020B8E710B504461CB9FFF7ED
:103DB00003F9002010BD0120FCE70346ABB931B187
:103DC00001290BD0022904D003290ED10BE00020D9
:103DD00070474FF4805010800020F9E74FF40060E6
:103DE00010600020F4E70020F2E70420F0E72DE95E
:103DF000F04104460D4616461F463CB93A033103CE
:103E0000284602F09FF90020BDE8F0810420FBE77E
:103E1000014611B90022104670470120FCE72DE948
:103E2000F04104460D4616461F468CB94FF0000877
:103E300009E031034FF48052284602F087FA08F176
:103E4000010000F0FF08B845F3D30020BDE8F08181
:103E50000420FBE738B50546284600F035FF044648
:103E60003CB96946284602F03AFC04460CB90020E9
:103E70002860204638BD2DE9F84F04460E466946B5
:103E8000204602F02CFC8246BAF1000F01D194F8D2
:103E900011A0BAF1000F02D05046BDE8F88FE068DB
:103EA000B04204D2207C00F0020000B9E668D4F8E9
:103EB00014904FF00008C4F81480002E72D00098BF
:103EC00040890099898900FB01F7B9F1000F11D0F1
:103ED000701EB0FBF7F1A9F10100B0FBF7F08142D1
:103EE00008D3A9F10100791E884360616069361A20
:103EF000A56912E0A5687DB900212046FFF784FA84
:103F00000546012D02D102206074C6E7681C10B975
:103F100001206074C1E7A560A561002D42D024E0B6
:103F2000F61B606938446061207C00F0020040B1FB
:103F300000BF29462046FFF767FA054635B9002637
:103F400015E02946204601F0A9FB0546681C10B97A
:103F500001206074A1E7012D03D90098C069A8422F
:103F600002D80220607498E7A561BE42D8D800BF8D
:103F700060693044606100988089B6FBF0F100FB15
:103F8000116078B129460098FFF7B6F98046B8F17C
:103F9000000F02D1022060747FE700988089B6FB91
:103FA000F0F08044E1686069884205D96069E060AA
:103FB000207C40F040002074606900998989B0FB42
:103FC000F1F201FB120020B3E069404521D0207CD2
:103FD00000F0800078B1E26900994878012304F18B
:103FE0002801FFF71CFF10B10120607455E7207C09
:103FF00000F07F002074009948780123424604F1C4
:104000002801FFF7F4FE10B10120607445E7C4F801
:104010001C80504641E70000F1B592B0022201A990
:1040200012A801F0C7F80446002C72D1019806903E
:1040300006A8129901F06EFA044604B9082400BFDC
:10404000042C66D101980290002102A8FFF7DCF948
:104050000546002405B90724012D00D10224681C5F
:1040600000B901242C4FBCBB29460198FFF7F4FB93
:1040700004468CBB0B2220210198383001F0D6FC7D
:104080002E20019981F838001021019880F8431002
:10409000394601984E3002F06DFA2A4601993831BE
:1040A000019802F055FA20220199383101985830D0
:1040B00001F0AFFC2E21019880F85910089E32467D
:1040C00001995831019802F043FA01200199C87012
:1040D00006A8FFF745FD0446B4B90D9901F1160095
:1040E000394602F047FA2A460D99019802F030FA53
:1040F00010200D99C87201200199C8701CB901984F
:1041000002F05AFA044604E00022294602A801F00F
:104110001EFE204613B0F0BD0000214C2DE9FF4FDC
:1041200095B01746012014904002139015A801F095
:1041300009FC02900298002803DA0B2019B0BDE8B0
:10414000F08FFA49029851F8200028B10021F74A6F
:10415000029852F8200001700298C0B2119000201D
:1041600010901198FFF720FE0190019800F00100D7
:1041700008B10320E2E7019800F0040008B10A202A
:10418000DCE70CAA03211198FFF717FE50B90C9831
:1041900040B10C98B0F5004F04D80C98401E0C9913
:1041A000084008B101200C900FAA02211198FFF7D6
:1041B00004FE08B10120C1E7BDF83C00B0F5805F06
:1041C0000BDCBDF83C00B0F5007F06DBBDF83C0021
:1041D000401EBDF83C10084008B10120AEE71FB1F9
:1041E000BDF83C00874205D3B7F1807F02D8781E26
:1041F000384008B11320A1E7BDF83C00B7FBF0F749
:10420000189CBDF83C102298B0FBF1F00D90BDF861
:104210003C100D9848430E900CB10D9808B9112030
:104220008CE700BF07AA01211198FFF7C6FD08B16E
:10423000012083E7169800F0080008B1002000E094
:104240003F2083460798584501D20E2076E707980D
:10425000A0EB0B0007900798802801D20E206DE795
:1042600000BF00BF802F01D9132067E7169800F028
:10427000020050B1169800F00700022803D01698EB
:1042800000F0010008B9032607E0169800F00100CD
:1042900008B9132052E7022600BF00BF00BF3D4609
:1042A000032E2FD1A5B907984FEA5049002003905B
:1042B000012503E00398401C03906D009C4903987E
:1042C00031F8100020B1039831F810004845F1D9B9
:1042D0000798B0FBF5F8082000EB8800BDF83C100B
:1042E0000844401EB0FBF1F005902020069000200D
:1042F00004904FF6F570804502D98E4880453BD931
:104300000E201BE7A5B907984FEA1039002003904B
:10431000012503E00398401C03906D008649039833
:1043200031F8100020B1039831F810004845F1D958
:104330000798B0FBF5F840F6F570804503D90420E6
:1043400000EB480906E0012608EB4800401C032169
:1043500001EB5009BDF83C004844401EBDF83C103C
:10436000B0FBF1F0059001200690BDF83C004FF441
:104370008041B1FBF0F004900698584409900999E7
:10438000059801440498084408900C99089808443A
:10439000401E491E20EA01010898A1EB0009032EE6
:1043A00006D106984844069009984844099002E0CE
:1043B000059848440590089800EB0510A0EB0B0009
:1043C0000799884201D90E20B8E6DDE90601091AED
:1043D0000598091A0498081AB0FBF5F8032E0AD1BB
:1043E0004FF6F570804506D81FB96808071E00D043
:1043F00031E00E20A2E6022E24D14FF6F570804562
:1044000014D92FB94020B0EB450F01D36F0022E043
:10441000169800F0020008B103261CE027B96800D6
:104420000746802800D816E00E2087E640F6F57093
:10443000804507D827B968000746802800D80AE0D9
:104440000E207BE6012E05D140F6F570804501D99E
:104450000E2073E600E022E700BFBDF83C200021FB
:10446000204601F0E3FA0B2234A1204601F0D1FAF4
:10447000BDF83C1004F10B0002F088F86573069853
:1044800081B204F10E0002F081F801202074032EA5
:1044900001D1002001E04FF40070014604F1110049
:1044A00002F074F80798B0F5803F06D2079881B201
:1044B00004F1130002F06AF804E004F12000079907
:1044C00002F058F8F82060753F2104F1180002F05E
:1044D0005DF8FF2104F11A0002F058F8594604F182
:1044E0001C0002F047F8032E36D1174904F14300AF
:1044F00002F040F804F12400059902F03BF8022193
:1045000004F12C0002F036F8012104F1300002F031
:104510003DF8062104F1320002F038F8802084F8DA
:104520004000292084F8420013220FE08800002078
:1045300070670008F5FFFF0F62670008EBFE904D03
:1045400053444F53352E30000000214C9CA104F100
:10455000470001F05EFA16E09E4904F1270002F0E0
:1045600009F8059881B204F1160002F00FF88020D6
:1045700084F82400292084F82600132296A104F14F
:104580002B0001F046FA4AF6552104F5FF7001F0C0
:10459000FDFF01235A4621461198FFF740FC08B160
:1045A0000120CBE5032E34D101230BF10602214675
:1045B0001198FFF734FCBDF83C200021204601F0A3
:1045C00035FA8A49204601F0D5FF894904F5F27091
:1045D00001F0D0FFA8F1010104F5F47001F0CAFF69
:1045E000022104F5F67001F0C5FF4AF6552104F5E5
:1045F000FF7001F0CBFF01230BF107022146119858
:10460000FFF70DFC01230BF1010221461198FFF782
:1046100006FC002120460E9A01F008FA09980B903A
:104620000020039042E0032E0FD16FF007012046D7
:1046300001F0A0FF311F201D01F09CFF6FF07041C1
:1046400004F1080001F096FF09E0012E01D169484C
:1046500001E06FF007000146204601F08BFF05984E
:104660000A9000BF0D990A98884201D90D9800E080
:104670000A9881464B4621460B9A1198FFF7CFFBCB
:1046800008B101205AE5BDF83C200021204601F088
:10469000CDF90B9848440B900A98A0EB09000A90BA
:1046A0000A980028DED10398401C03900398002844
:1046B000B9D0032E01D1284600E004980A9000BF2B
:1046C0000D990A98884201D90D9800E00A98814610
:1046D0004B4621460B9A1198FFF7A1FB08B1012028
:1046E0002CE50B9848440B900A98A0EB09000A901F
:1046F0000A980028E4D100BF032E02D10C201290AA
:104700000CE00798B0F5803F02D30620129005E038
:10471000022E01D1042000E00120129000BF169863
:1047200000F00800F0BBBDF83C200021204601F05D
:104730007DF94AF6552104F5FF7001F027FF04F5D5
:10474000DF7A00208AF8000001208AF801008AF848
:10475000020000208AF8030012988AF804000798E3
:10476000584443F6C161B0FBF1F9FE208AF8050018
:10477000C02000EA990040F03F008AF806008AF85D
:10478000079059460AF1080001F0F4FE0AF10C0006
:10479000079901F0EFFE0123002221461198FFF74F
:1047A0003EFB00E002E008B10120C7E40022114610
:1047B0001198FFF702FB08B10120BFE40020BDE41F
:1047C0004E4F204E414D452020202046415433324B
:1047D000202020000000214C4E4F204E414D45200E
:1047E00020202046415420202020200052526141A8
:1047F00072724161F8FFFF00F7B582B01646039868
:10480000019001A801F09EF80546002D02DA0B2068
:1048100005B0F0BD0C4850F825400CB100202070C8
:10482000029810B10020029908700749029841F8D7
:1048300025000EB90020EBE7002202A903A800F032
:10484000B9FC07463846E3E7880000202DE9F74F1A
:104850008EB0044616461CB9092011B0BDE8F08F91
:1048600006F03F06324601A90FA800F0A3FC05465A
:10487000002D7DD10198029002A80F9900F04AFE08
:1048800005462DB99DF8330000F0800000B10625E3
:1048900006F01C0000284DD045B1042D03D102A81C
:1048A000FFF75EF9054646F008060AE09DF80E009F
:1048B00000F0110008B1072503E006F0040000B184
:1048C0000825002D47D106F00800002843D009999B
:1048D000019801F05EF88146099901F10E005749EF
:1048E00001F048FE20200999C87200220999019818
:1048F00001F02EFE099901F11C00002101F03AFEA1
:1049000001200199C870B9F1000F24D00198406BC3
:1049100000900022494602A801F019FA0546D5B9CF
:10492000DDE9001001F08BF80546A9F101000199BD
:10493000486110E07DB99DF80E0000F0100008B14C
:10494000042508E006F0020028B19DF80E0000F0F2
:10495000010000B107254DB906F0080008B146F086
:1049600040060198406B206209986062002D00E0CB
:104970004EE05ED10999019801F00BF8A060099909
:1049800001F11C0001F018F8E06001982060019826
:10499000C088A080267400206074E06160614FF4DC
:1049A0008052002104F1280001F040F806F02000B8
:1049B00070B3E06860B3E068606101984089019974
:1049C000898900FB01FAA768D4F80C800CE039460D
:1049D000204600F063FE0746012F00D80225781C10
:1049E00000B90125A8EB0A080DB9D045EFD8A76199
:1049F00075B901988089B8FBF0F100FB118038B1DE
:104A000039460198FEF778FCB0F1000B01D1022580
:104A10000FE001988089B8FBF0F05844E061E2694A
:104A200001994878012304F12801FFF7E0F900B16A
:104A300001250DB10020206028460EE70000214C22
:104A400033B581B004460CB909203EBD0022694649
:104A500002A800F0AFFB05461DBB00982060204671
:104A6000029900F057FD0546C5B92B20005D00F006
:104A7000800050B9A07900F0100028B1E1690098D9
:104A800000F087FFA06000E005253DB90098C088D0
:104A9000A08000212046FFF734F90546042D00D1FF
:104AA00005250DB1002020602846CEE72DE9FF4FF7
:104AB00085B0044615469A46DDF818B00020CAF8BD
:104AC000000003A9204601F00AFE0490049810B9E2
:104AD000607C049018B1049809B0BDE8F08F207C88
:104AE00000F0010008B90720F6E76169E068401AA4
:104AF00001900198854200D9019DB9E06069039950
:104B00008989B0FBF1F201FB1200002876D16069BF
:104B100003998989B0FBF1F003994989491E00EA9C
:104B20000109B9F1000F17D1606910B9A0680290AE
:104B300004E02046A16900F0B1FD0290029802282D
:104B400002D202206074C7E70298401C10B901200D
:104B50006074C1E70298A061A1690398FEF7CCFBDD
:104B6000064616B902206074B6E74E440398808961
:104B7000B5FBF0F8B8F1000F2DD009EB0800039950
:104B80004989884203D903984089A0EB0908039911
:104B90004878434632465946FFF729F910B10120BB
:104BA000607499E7207C00F0800078B1E069801B98
:104BB00040450BD2E169891B039B9B8901FB03B034
:104BC00003998A8904F1280100F023FF0398808962
:104BD00000FB08F742E0E069B04220D0207C00F002
:104BE000800080B1E26903994878012304F128012B
:104BF000FFF715F918B1012060746DE710E0207C13
:104C000000F07F002074039948780123324604F1B4
:104C10002801FFF7ECF810B1012060745CE7E66151
:104C2000606903998989B0FBF1F201FB12000399D5
:104C300089890F1AAF4200D92F4660690399898983
:104C4000B0FBF1F201FB120104F1280008443A46DE
:104C500001460090584600F0DCFE00BFED1BDAF87C
:104C600000003844CAF80000BB4460693844606101
:104C7000002D7FF443AF00202EE7F8B506460D4621
:104C80006946304601F02BFD0446DCB92DB9002100
:104C90003046FFF736F8044614E000213046FEF7B0
:104CA000F6FE0446042C00D100245CB929463046A7
:104CB00000F08DFD00213046FEF77CFE0446042CFA
:104CC00000D100242046F8BDF8B5044669462046C8
:104CD00001F005FD0646002E42D1207C00F0400088
:104CE00000283DD0207C00F0800070B1E26900997E
:104CF0004878012304F12801FFF791F808B1012059
:104D0000F8BD207C00F07F002074164F216A0098C7
:104D100000F095FE06461EBB656AE87A40F020006A
:104D2000E8722946A268206801F012FC05F11C0017
:104D3000E16801F01FFC394605F1160001F01AFC8C
:104D4000002105F1120001F021FC01200099C8703A
:104D5000009801F031FC0646207C00F0BF00207472
:104D60003046CDE70000214C31B59AB00025022233
:104D700001A91AA800F01EFA0446002C46D1019899
:104D80000E900EA81A9900F0C5FB044600BF002C37
:104D90003CD19DF8630000F0800008B1062405E0D6
:104DA0009DF83E0000F0010000B10724E4B9159918
:104DB000019800F0EEFD05469DF83E0000F0100061
:104DC00090B1019802900495002102A8FEF799FF86
:104DD00004464CB9002102A8FEF759FE044604B966
:104DE0000724042C00D1002484B90EA8FEF759FF33
:104DF000044634B92DB1002229460EA800F0A7FFC1
:104E000004461CB9019801F0D7FB044620461BB0AC
:104E100030BD2DE9FF4F85B0044615469B460698E8
:104E200002900020CBF8000003A9204601F057FCB7
:104E30000490049810B9607C049018B1049809B0EB
:104E4000BDE8F08F207C00F0020008B90720F6E7EB
:104E500000BF606928446169884202D26069C0F17C
:104E6000FF35D6E0606903998989B0FBF1F201FB57
:104E7000120000287DD1606903998989B0FBF1F0A7
:104E800003994989491E00EA010ABAF1000F1ED1AF
:104E9000606938B9A76857B900212046FEF7B4FA0F
:104EA000074604E02046A169FEF7AEFA074607B9B7
:104EB000B2E0012F02D102206074C0E7781C10B963
:104EC00001206074BBE7A761A06800B9A760207CDF
:104ED00000F0800078B1E26903994878012304F179
:104EE0002801FEF79CFF10B101206074A7E7207C29
:104EF00000F07F002074A1690398FEF7FDF90646D3
:104F000016B9022060749AE7564403988089B5FB6D
:104F1000F0F9B9F1000F31D00AEB09000399498982
:104F2000884203D903984089A0EB0A09039948787D
:104F30004B4632460299FEF772FF10B101206074B1
:104F40007DE7E069801B484511D2E069831B039827
:104F5000B0F80CC0029803FB0C010398828904F19D
:104F6000280000F056FD207C00F07F00207403989C
:104F700000E017E0808900FB09F835E0E069B04205
:104F80000FD0E168606988420BD203994878012309
:104F9000324604F12801FEF72AFF10B101206074A7
:104FA0004DE7E661606903998989B0FBF1F201FB85
:104FB000120003998989A1EB0008A84500D9A846E9
:104FC000606903998989B0FBF1F201FB120104F1D8
:104FD0002800084442460190029900F01AFD207C06
:104FE00040F08000207400BFA5EB0805DBF800004E
:104FF0004044CBF80000029840440290606940446D
:105000006061E1686069884201D9606900E0E06838
:10501000E060002D7FF426AF00BF207C40F0400010
:10502000207400200BE70000F0B502460E46002079
:105030000021802A01DA104627E0B6F5697F24D1E5
:10504000124B41F6DD470025102414E0A7EB050CB8
:1050500005EB5C014FEA410C33F81CC0944500D1CC
:105060000BE04FEA410C33F81CC0944501DA0D46C1
:1050700000E00F46641E002CE8D100BF2CB14FF0B9
:10508000010C0CEB410C33F81C00F0BDF6DA000803
:105090002DE9F04102460F4600200021802A01D26E
:1050A00090B22BE0B2F5803F28D2B7F5697F25D1C9
:1050B00095B2134B41F6DD4C0026102414E0ACEB06
:1050C000060806EB58014FEA410833F81880A84556
:1050D00000D10BE04FEA410833F81880A84501DA07
:1050E0000E4600E08C46641E002CE8D100BF2CB1B7
:1050F0004FF0010808EB410833F81800BDE8F081D3
:105100007E67000870B5B0F5803F4DD281B2B1F531
:10511000805F01DA254E00E0254E324600BF32F8AE
:10512000023B0BB1994200DA3CE032F8024B251207
:10513000E4B21E198E4230DD092D2CD2DFE805F0D5
:1051400005090F13171B1F232700CE1A32F816105C
:1051500021E0CE1A06F001068E1BB1B21BE0A1F1D0
:105160001006B1B217E0A1F12006B1B213E0A1F12F
:105170003006B1B20FE0A1F11A06B1B20BE001F1B5
:105180000806B1B207E0A1F15006B1B203E0A1F503
:10519000E356B1B200BF00BF04E0002DBFD102EB67
:1051A0004402BCE700BF084670BD00006E4E010817
:1051B000605001082DE9F74F8AB000210B9801607B
:1051C0000A9800F0BFFB08900898002803DA0B202B
:1051D0000DB0BDE8F08FC949089851F820400CB9CE
:1051E0000C20F5E70B9804600C9800F0FE000C9082
:1051F000207878B16078FEF70BFE814609F0010057
:1052000040B90C9820B109F0040008B10A20DFE78A
:105210000020DDE700202070089860706078FEF7BD
:10522000C3FD814609F0010008B10320D0E70C98C6
:1052300020B109F0040008B10A20C9E7607804F140
:105240000C020221FEF7B9FD08B10120C0E7A089D8
:10525000B0F5805F07DCA089B0F5007F03DBA08993
:10526000411E084008B10120B2E700273946204618
:10527000FDF7FAFF0546022D01D02EDA2DE00026BB
:1052800014E04FF4DF7000EB061104F1380008441D
:1052900009900998007920B10998083000F08CFB3A
:1052A00000E0002002A941F82600761C042EE8D375
:1052B000002606B1761E00BF02A850F8267027B15E
:1052C00039462046FDF7D0FF00E003200546022DB9
:1052D00003DB701C06460428EED3042D01D1012007
:1052E00076E7022D01DB0D2072E704F1430000F0A8
:1052F0006FFBA189884201D00D2069E704F14E00BF
:1053000000F066FB8046B8F1000F04D104F15C00A8
:1053100000F052FB8046C4F820804820005DA07059
:10532000A078012804D0A078022801D00D204FE7F2
:10533000A07808FB00F84520005D6081608918B105
:105340006089411E084008B10D2041E704F1490081
:1053500000F03EFB2081A089C11700EBD16149110B
:10536000228992FBF1F301FB132109B10D202FE7F4
:1053700004F14B0000F02CFB8346BBF1000F04D17D
:1053800004F1580000F018FB834604F1460000F0D9
:105390001FFB0190019808B90D2019E7A089C117DA
:1053A00000EBD1614911228992FBF1F2019941444C
:1053B0001144079107998B4501D20D2008E7079802
:1053C000ABEB00006189B0FBF1FABAF1000F01D13B
:1053D0000D20FDE600254A48824500D803254FF6FA
:1053E000F570824500D8022540F6F570824500D858
:1053F00001250DB90D20EBE60AF10200E0616762BC
:1054000001983844A062079838442063032D13D1D3
:1054100004F1620000F0DCFA08B10D20D8E6208922
:1054200008B10D20D4E604F1640000F0C5FAE06292
:10543000E0698000069014E0208908B90D20C7E6D5
:10544000A06A4044E062022D02D1E069400007E01A
:10545000207F00F00100E16901EB410100EB510008
:105460000690A089401E06990844A189B0FBF1F07E
:10547000216A884201D90D20AAE64FF0FF30A061D1
:10548000606180202071032D2CD104F1680000F0B0
:105490009FFA012826D1791C204600F0D0FA08BBDB
:1054A0000020207104F2362000F092FA4AF65521CD
:1054B000884217D104F1380000F07EFA1149884281
:1054C00010D104F5077000F077FA0F49884209D12E
:1054D00004F5087000F070FAA06104F5097000F09E
:1054E0006BFA6061257009480088401C80B207494A
:1054F0000880E08006482061002069E688000020DE
:10550000F5FFFF0F52526141727241618C00002021
:10551000304200202DE9F3410446276802E001985B
:10552000401C0190019800782F28F8D0019800784D
:105530005C28F4D00020A06001980078202808D2D0
:1055400080212B20015500212046FEF7DAFB05467D
:1055500031E000BF01A92046FDF7E6FF054605B191
:1055600028E02046FEF7A8F905462B20065D3DB150
:10557000042D04D100BF06F0040000B9052519E090
:1055800006F0040000B115E0A07900F0100008B9A1
:1055900005250FE0B9892069B0FBF1F201FB12018A
:1055A00007F1380001EB00084146384600F0F1F9F8
:1055B000A060CFE700BF2846BDE8FC8170B5044677
:1055C0000D46E1B20020FDF717FF204670BD000038
:1055D0002DE9FF4F83B0804691461E460B22404680
:1055E000049900F016FA052E18D9374611E039F85B
:1055F00002BB00250BE0584667F35F0007464FEA01
:105600006B0B07F4803008B1234847406D1C102D08
:10561000F1D3B9F800000028E9D13E46072500BFC4
:1056200006F00F0000F1300ABAF1390F03DD0AF17C
:10563000070000F0FF0A28466D1E01A901F800A02E
:105640003609002EECD17E20485500240AE018F8D7
:105650000400FEF793F820B1681EA04200D107E0D5
:10566000641C641CAC4203D218F804002028EED15C
:1056700000BF00BF082D04D228466D1C01A9085C9C
:1056800000E020202146641C08F80100082CF1D31A
:1056900007B0BDE8F08F0000211001002DE9F05F98
:1056A00081460D46D9F80040022D02D3E069A84298
:1056B00002D84FF0010887E04FF0FF38207801282A
:1056C00004D002283AD003287AD156E02E4606EBC1
:1056D0005606A089B6FBF0F0A16A00EB010A51461C
:1056E000204600F0ACF900B16DE03046761CA1898F
:1056F000B0FBF1F201FB120104F13800475CA08914
:10570000B6FBF0F0A16A00EB010A5146204600F01A
:1057100096F900B157E0A089B6FBF0F100FB1161EA
:1057200004F13800405C47EA002705F0010008B1A9
:10573000380901E0C7F30B00804644E0B4F80CA040
:105740000AEBDA704010B5FBF0F0A16A00EB010B38
:105750005946204600F073F900B134E06800A18991
:10576000B0FBF1F201FB120104F1380001EB000A79
:10577000504600F02DF9804625E0B4F80CA04FEA21
:10578000EA700AEB90708010B5FBF0F0A16A00EBB4
:10579000010B5946204600F052F900B113E0A80071
:1057A000A189B0FBF1F201FB120104F1380001EB19
:1057B000000A504600F000F920F0704803E0FFE7CF
:1057C0004FF0010800BF00BF4046BDE8F09F2DE943
:1057D000F04707460C46D7F800A00020A075B8692E
:1057E00008B9BDE8F087F86A401CA8B30025A946AF
:1057F000A84622E0404608F10108DAF8102032F805
:105800001060B9F1000F07D1B6F5584F04DBB6F5BB
:10581000604F01DAB14610E0C5F1FF0204F1160352
:10582000591946EA094000F071FA06460EB90025FA
:1058300009E035444FF0000900BFDAF8100030F8F5
:1058400018000028D6D100BFB9F1000F00D0002504
:10585000002104F1160041550020054680461BE05A
:10586000404608F10108FA69165C202E00D113E0C9
:10587000052E00D1E526B8F1090F07D10C2D05D270
:105880002E2228466D1C04F109010A5428466D1C7D
:1058900004F109010E5400BFB8F10B0FE0D3002151
:1058A00004F109004155A07DA8BB35B93F22284627
:1058B0006D1C04F116010A5424E0002005468046C0
:1058C0001AE004F1090010F80860412E0EDB5A2E90
:1058D0000CDCF869007BB8F1090F01D3102100E05E
:1058E0000821084010B106F1200086B204F116002C
:1058F000465508F101086D1C04F1090010F8080074
:105900000028DED1002104F116004155F869007B22
:1059100008B900206072F869C07A2072F96901F153
:105920001C0000F049F82060F96901F1160000F050
:105930004FF8E080F96901F1180000F049F8A08003
:1059400000BF4EE770B504464FF0FF302668314681
:10595000324601B970BD00BF12F8013B202B01D3C4
:105960003A2BF9D13A2B11D101250E78302E08DBD4
:105970000E78392E05DC8E1C964202D10E78A6F1E7
:105980003005012D01DA28462260E3E7002000BF40
:10599000E0E770B505460C4604F11A0000F018F86F
:1059A00006462878032805D104F1140000F010F809
:1059B00046EA0046304670BD0146C8788A7842EA19
:1059C00000204A7842EA00200A7842EA0020704724
:1059D000014648780A7842EA0020704710B5FDF782
:1059E00020FAFBF7C9FDFAF7EDFF002010BDF0B576
:1059F00003461D460C46002000BF15F8017B14F835
:105A000001CBA7EB0C00561E321E01D00028F4D0AB
:105A1000F0BD30B503460C463AB100BF14F8015B47
:105A200003F8015B551E2A1EF8D130BD10B50346A0
:105A300000BF03F8011B541E221EFAD110BD70B521
:105A400004460D460026606BA84210D0204600F0A8
:105A5000FBFD06465EB9607801232A4604F1380151
:105A6000FEF7C5F910B14FF0FF35012665633046EA
:105A700070BD00002DE9F04780460C4604F11A0085
:105A8000FFF7A6FF10B10020BDE8F087207820F0D6
:105A90004000401E00EB800101EBC0054FF0010902
:105AA000002619E01449895D0819FFF791FF0746A0
:105AB000B9F1000F09D0FF2D01D30020E4E7B9466A
:105AC00028466D1C28F8107005E04FF6FF708742DD
:105AD00001D00020D8E7761C0D2EE3D3207800F00B
